:030000000200B348
:0100030032CA
:03000B000210BE22
:0100130032BA
:03001B00020EA82A
:03002300023BACF1
:03002B000206B614
:01003300329A
:03003B0002162981
:01004300328A
:01004B003282
:01005300327A
:01005B003272
:01006300326A
:01006B003262
:03007300020B0974
:01007B003252
:01008300324A
:01008B003242
:01009300323A
:01009B003232
:0300A300022B52DB
:1000B30075FFDE75FFAD75817F75A200753500751F
:1000C3003400753300753B00753A0075390075418E
:1000D30000754000753F0075470075460075450083
:1000E300754D00754C00754B0075530075520075C6
:1000F3005100755900755800755700755F00755E9E
:1001030000755D00781F7400F2784A7400F27896E7
:100113007403F27814F278127400F2C238C23A7897
:10012300427464F278487464F2D262D26374FF78E2
:1001330089F278167418F2F56578187400F2F5668A
:1001430078157400F2F56978197400F27813740065
:10015300F278107400F278117400F278177400F2D8
:10016300C24D78277400F2781BF2C256785E740091
:10017300F278977405F27824F278227400F2C23987
:10018300C23B78437464F278497464F2D260D261FA
:1001930074FF7890F278267418F2F517782A7400B1
:1001A300F2F51878237400F278257400F2F56A7872
:1001B300287400F278207400F278217400F2782910
:1001C3007400F2C24E782BF2C257785F7400F27853
:1001D300567440F2C26C78547400F2C26A78557453
:1001E30000F2C26B782F7440F2C255782D7400F27E
:1001F300C258782E7400F2C259781A7401F2780347
:100203007401F2F505C24875070078097401F2F527
:100213000BC249750D00751A0378447401F2F56138
:100223007845742DF2F562784674FFF27847740CC2
:10023300F2F560781D7400F2C25C781E7400F2C29D
:100243005D784F7400F2783274FFF278337400F201
:1002530078307400F278317400F278387400F2C2A6
:100263005E78397400F2C25F78347401F2F5157860
:10027300357401F2F516783674FFF278377401F2AB
:10028300F5147802745FF2F50478047407F27805C4
:100293007401F2F50678067400F2780E7400F2F534
:1002A30009C25A7808745FF2F50A780A7407F2787B
:1002B3000B7401F2F50C780C7400F2780F7400F2F1
:1002C300F50FC25B78407400F278417400F27892C3
:1002D3007437F27893F2789AF274FF78ACF278ADCF
:1002E300F278AEF278AF784C7400F2C253784D7462
:1002F30000F2784E7401F2C254783A7400F2D26478
:10030300783BF2D265783CF275B000783DF2783EE6
:10031300F2783FF278507400F27851F27852F27822
:1003230053F2752000752200752300752100757046
:1003330000757100757200757300752500752600D0
:10034300752400751002751102751202751302D21D
:1003530050C251C252C240C243C24AC268751E0053
:10036300C269C24F121819C2A7C245C23CC23D7529
:100373007D00C23EC266C267C26EC26F751C027543
:100383001B00751D00C23F74FF78A3F278A0F278BA
:10039300A4F278A1F278A5F278A2F2121201121354
:1003A300261239E11239BC123BA7123B82C24675B1
:1003B3001F007852E2B40002804CB40117783DE28A
:1003C300F5F0789BE225F075840075D84075DA4224
:1003D300F5FC8032B40217783EE2F5F0789BE22513
:1003E300F075840075D84075DB42F5FE8018B403C0
:1003F30015783FE2F5F0789BE225F075840075D817
:100403004075DC42F5EA7853E2B40002804CB40153
:1004130017783DE2F5F0789CE225F075840075D8F5
:0D0423004075DA42F5FC8032B40217783ED5
:10043000E2F5F0789CE225F075840075D84075DB14
:1004400042F5FE8018B40315783FE2F5F0789CE29F
:1004500025F075840075D84075DC42F5EA30600DF2
:10046000740212124A7849E2123D3EC26030610DB8
:10047000740212124A7843E2123CFFC26130620DEC
:10048000740112124A7848E2123CFFC26230630DD6
:10049000740112124A7842E2123D3EC2633064197E
:1004A000740412124A783AE2C0E0123CBC7408129A
:1004B000124AD0E0123CBCC26430652B7584000047
:1004C0002045FD00D2450075C044756F01756B5025
:1004D000756CAF756DAF783BE223F56EC2C4D2C5C3
:1004E000C26580030205953066FA740112124A78DB
:1004F00084E2C0E0F5F07840E2A4A9F07842E2F8A6
:10050000747FC398B501005004F5F0800289F0E8CB
:1005100025F0547F123D3ED0E0F4F5F07840E2A49F
:10052000A9F07848E2F8747FC398B501005004F54B
:10053000F0800289F0E825F0547F123CFF7402122B
:10054000124A7884E2C0E0F5F07840E2A4A9F0789D
:1005500043E2F8747FC398B501005004F5F08002BF
:1005600089F0E825F0547F123D3ED0E0F4F5F078B4
:1005700040E2A4A9F07849E2F8747FC398B501007D
:100580005004F5F0800289F0E825F0547F123CFF1A
:10059000800302063E3067FA740112124A7885E23F
:1005A000C0E0F5F07841E2A4A9F07842E2F8747F67
:1005B000C398B501005004F5F0800289F0E825F0F9
:1005C000547F123D3ED0E0F4F5F07841E2A4A9F06A
:1005D0007848E2F8747FC398B501005004F5F080C4
:1005E0000289F0E825F0547F123CFF740212124A8F
:1005F0007885E2C0E0F5F07841E2A4A9F07843E222
:10060000F8747FC398B501005004F5F0800289F0BA
:10061000E825F0547F123D3ED0E0F4F5F07841E259
:10062000A4A9F07849E2F8747FC398B5010050049A
:10063000F5F0800289F0E825F0547F123CFF303C51
:1006400038758401C29C123C69C2A9C2ABC2ADC25A
:10065000E7121326121228D2472045FD000075E646
:100660000012273D75E603D2A9D2ABD2ADD2E71274
:100670003CAF758401D29CC23C303D081212D512A9
:100680001228C23D303F0B123C691242D5123CAFDA
:10069000C23F303E02C23E306E05124283C26E300F
:1006A0006F05124232C26FE520540FB40F04D2B767
:1006B00061B5C2B761B5C084C0E0C0F0C0D0C0822F
:1006C000C083C000C001303B0EE5B1540FF5B1E569
:1006D000B14430F5B1801D30390EE5B1540FF5B19C
:1006E000E5B14420F5B1800CE5B1540FF5B1E5B1A9
:1006F0004410F5B12058082059052055028035785E
:1007000098E2C313F5F07899E2C31325F0F5F07879
:100710002FE225F0547F9036989375840175C800B8
:1007200075840175C908F5CA75CBF575C804C2583A
:10073000C259C255757800757900784FE2F5F078A6
:1007400023E2F825F0F5F07894E225F0F5F07895BD
:10075000E225F0788FF220000302080390800078F1
:1007600097E22583F583E54B93306D026480C0E00A
:100770007890E2F5F0D0E0A4E570305C01F4305DF3
:100780000490371893A478ACE2A4C0F0789DE2F509
:10079000F078B4E2A4D0E025F0C0E0788AE2F5F089
:0D07A00030500EE510305E01F4305F049023
:1007AD00371893A4A8F0D0E0A4C0F0E8F4F5F078E1
:1007BD00B4E2A4E5F0D0F025F0F22578F578E43533
:1007CD0079F579788FE22574C2E7C0E09018BD9372
:1007DD00F548D0E0C0E090193D93F549D0E090196F
:1007ED00BD93F54AE54D254AF54DE54C3549F54C9A
:1007FD00E54B3548F54B20010201AF90800078970D
:10080D00E22583F583E55193306D026480C0E07875
:10081D0090E2F5F0D0E0A4E571305C01F4305D04B8
:10082D0090371893A478ADE2A4C0F0789DE2F5F06E
:10083D0078B5E2A4D0E025F0C0E0788AE2F5F0309A
:10084D00500EE511305E01F4305F0490371893A41B
:10085D00A8F0D0E0A4C0F0E8F4F5F078B5E2A4E596
:10086D00F0D0F025F0F22578F578E43579F5797842
:10087D008FE22575C2E7C0E09018BD93F54ED0E02C
:10088D00C0E090193D93F54FD0E09019BD93F55010
:10089D00E5532550F553E552354FF552E551354E9B
:1008AD00F551200202215B9080007897E22583F5B7
:1008BD0083E55793306D026480C0E07890E2F5F0E7
:1008CD00D0E0A4E572305C01F4305D0490371893EC
:1008DD00A478AEE2A4C0F0789DE2F5F078B6E2A47B
:1008ED00D0E025F0C0E0788AE2F5F030500EE51248
:1008FD00305E01F4305F0490371893A4A8F0D0E077
:10090D00A4C0F0E8F4F5F078B6E2A4E5F0D0F02557
:10091D00F0F22578F578E43579F579788FE225765A
:10092D00C2E7C0E09018BD93F554D0E0C0E0901937
:10093D003D93F555D0E09019BD93F556E5592556E3
:10094D00F559E5583555F558E5573554F557200304
:10095D000241079080007897E22583F583E55D934A
:10096D00306D026480C0E07890E2F5F0D0E0A4E54F
:10097D0073305C01F4305D0490371893A478AFE2C6
:10098D00A4C0F0789DE2F5F078B7E2A4D0E025F0B0
:10099D00C0E0788AE2F5F030500EE513305E01F4D8
:1009AD00305F0490371893A4A8F0D0E0A4C0F0E80D
:1009BD00F4F5F078B7E2A4E5F0D0F025F0F2257863
:1009CD00F578E43579F579788FE22577C2E7C0E0DF
:1009DD009018BD93F55AD0E0C0E090193D93F55BAA
:1009ED00D0E09019BD93F55CE55F255CF55FE55EA4
:1009FD00355BF55EE55D355AF55D7819E26004E528
:100A0D0020604A785EE2600CE57EB52002800585A7
:100A1D00207E8039304D05304B488010D5654378A8
:100A2D0016E2F565D5663B7818E2F5667815E26055
:100A3D0031E569700530561F802215697896E205FB
:100A4D00E0C2E7303A02C2E6F2C24B80157816E2F8
:100A5D00F5657818E2F5667815E2F5697914E379AC
:100A6D0096F37828E26004E520604A785FE2600C36
:100A7D00E57EB52002800585207E8039304E05301B
:100A8D004C488010D517437826E2F517D5183B78DA
:100A9D002AE2F5187825E26031E56A700530571FB6
:100AAD008022156A7897E205E0C2E7303B02C2E684
:100ABD00F2C24C80157826E2F517782AE2F51878FF
:100ACD0025E2F56A7924E37997F3C3E57833F57870
:100ADD00E57933F579C3E57833F578E57933F5794B
:100AED007584008578D28579D3C2CFD001D000D05E
:100AFD0083D082D0D0D0F0D0E0D08432C084C0E09A
:100B0D00C0F0C0D0C082C083C000C001303A0EE535
:0D0B1D00B1540FF5B1E5B14430F5B1801DC4
:100B2A0030380EE5B1540FF5B1E5B14420F5B18086
:100B3A000CE5B1540FF5B1E5B14410F5B1206A08DE
:100B4A00206B05206C02803578A6E2C313F5F07895
:100B5A00A7E2C31325F0F5F07856E225F0547F900A
:100B6A0036989375840075C80075840075C908F5B0
:100B7A00CA75CBF575C804C26AC26BC26C756300CC
:100B8A00756400784FE2F5F07813E2F825F0F5F095
:100B9A007880E225F0F5F07881E225F07888F2781D
:100BAA0032E2F5F07882E225F0788AF27833E2F5DB
:100BBA00F07883E225F0789DF2200002816F908020
:100BCA00007896E22583F583E53393306D026480DD
:100BDA00C0E07889E2F5F0D0E0A4E570305C01F479
:100BEA00305D0490371893A478ACE2A4C0F0789DE5
:100BFA00E2F5F078B0E2A4D0E025F0C0E0788AE22D
:100C0A00F5F030500EE510305E01F4305F04903795
:100C1A001893A4A8F0D0E0A4C0F0E8F4F5F078B0F6
:100C2A00E2A4E5F0D0F025F0F22563F563E435643B
:100C3A00F5647888E22574C2E7C0E09018BD93F5A0
:100C4A0030D0E0C0E090193D93F531D0E09019BD65
:100C5A0093F532E5352532F535E5343531F534E5A8
:100C6A00333530F533200102A11B9080007896E2DB
:100C7A002583F583E53993306D026480C0E0788975
:100C8A00E2F5F0D0E0A4E571305C01F4305D049047
:100C9A00371893A478ADE2A4C0F0789DE2F5F07815
:100CAA00B1E2A4D0E025F0C0E0788AE2F5F0305055
:100CBA000EE511305E01F4305F0490371893A4A852
:100CCA00F0D0E0A4C0F0E8F4F5F078B1E2A4E5F0E1
:100CDA00D0F025F0F22563F563E43564F56478888D
:100CEA00E22575C2E7C0E09018BD93F536D0E0C0A2
:100CFA00E090193D93F537D0E09019BD93F538E5AA
:100D0A003B2538F53BE53A3537F53AE5393536F5D9
:100D1A0039200202A1C79080007896E22583F583E4
:100D2A00E53F93306D026480C0E07889E2F5F0D047
:100D3A00E0A4E572305C01F4305D0490371893A4A6
:100D4A0078AEE2A4C0F0789DE2F5F078B2E2A4D0E1
:100D5A00E025F0C0E0788AE2F5F030500EE5123076
:100D6A005E01F4305F0490371893A4A8F0D0E0A491
:100D7A00C0F0E8F4F5F078B2E2A4E5F0D0F025F09E
:100D8A00F22563F563E43564F5647888E22576C272
:100D9A00E7C0E09018BD93F53CD0E0C0E090193D63
:100DAA0093F53DD0E09019BD93F53EE541253EF51A
:100DBA0041E540353DF540E53F353CF53F2003022E
:100DCA00C1739080007896E22583F583E5459330D8
:100DDA006D026480C0E07889E2F5F0D0E0A4E573A2
:100DEA00305C01F4305D0490371893A478AFE2A424
:100DFA00C0F0789DE2F5F078B3E2A4D0E025F0C027
:100E0A00E0788AE2F5F030500EE513305E01F430F6
:100E1A005F0490371893A4A8F0D0E0A4C0F0E8F4D7
:100E2A00F5F078B3E2A4E5F0D0F025F0F22563F509
:100E3A0063E43564F5647888E22577C2E7C0E09018
:100E4A0018BD93F542D0E0C0E090193D93F543D028
:100E5A00E09019BD93F544E5472544F547E5463545
:100E6A0043F546E5453542F545C3E56333F563E5A4
:100E7A006433F564C3E56333F563E56433F5647598
:100E8A0084018563D28564D3C2CFD001D000D083D8
:0D0E9A00D082D0D0D0F0D0E0D08432021051
:100EA700ABC084C0E0C0F0C0D0C082C083C000C067
:100EB70001D51AEA751A037846E2F5F0D561597833
:100EC70044E2F5613010120570E570B4FF0BC210F3
:100ED700E5F0B4FF028002D2183011120571E571F6
:100EE700B4FF0BC211E5F0B4FF028002D219301231
:100EF700120572E572B4FF0BC212E5F0B4FF02806F
:100F070002D21A3013120573E573B4FF0BC213E54F
:100F1700F0B4FF028002D21BD562357845E2F56254
:100F27003018091570E5F0B57002C21830190915A7
:100F370071E5F0B57102C219301A091572E5F0B5FD
:100F47007202C21A301B091573E5F0B57302C21B92
:100F5700D5602D7847E2F560300807D57004C208E0
:100F6700C200300907D57104C209C201300A07D58A
:100F77007204C20AC202300B07D57304C20BC20344
:100F870080007836E2F5F0D515597834E2F515305A
:100F970028120510E510B4FF0BC228E5F0B4FF02D4
:100FA7008002D2303029120511E511B4FF0BC22996
:100FB700E5F0B4FF028002D231302A120512E512A1
:100FC700B4FF0BC22AE5F0B4FF028002D232302B05
:100FD700120513E513B4FF0BC22BE5F0B4FF028033
:100FE70002D233D516357835E2F5163030091510AB
:100FF700E5F0B51002C2303031091511E5F0B51131
:1010070002C2313032091512E5F0B51202C2323090
:1010170033091513E5F0B51302C2337837E2B4018B
:10102700057524008034D514317837E2F514302063
:1010370008D51005751004C220302108D511057593
:101047001104C221302208D51205751204C22230BC
:101057002308D51305751304C223E520601720481C
:101067001ED505117803E2F505D50709D2486003B7
:10107700750800800AC2487803E2B40102D248E545
:1010870020601720491ED50B117809E2F50BD50D05
:1010970009D2496003750E00800AC2497809E2B493
:1010A7000102D249D001D000D083D082D0D0D0F075
:1010B700D0E0D084322161C084C0E0C0F0C0D0C08D
:1010C70082C083C000C001D504EB7902E3F504D5E3
:1010D70006E37905E3F506901B3D7904E3B4080CB4
:1010E7007992E375F025A42435F3800D2583F583E4
:1010F700E50804F50893798DF3F83051068510F06B
:10110700A4A8F0204802780088F07930E3A4E5F03D
:101117007982F388F07910E3A4E5F07980F388F019
:101127007920E3A4E5F07994F388F07950E3A4E516
:10113700F0799BF388F0792DE3A4E5F07998F360D3
:1011470002D258E87984F388F07954E3A4E5F0797A
:10115700A6F36002D26A800221F0D50AFB7908E380
:10116700F50AD50CF3790BE3F50C901B3D790AE3EF
:10117700B4080C7993E375F025A42435F3800D2585
:1011870083F583E50E04F50E93798EF3F830520656
:101197008510F0A4A8F0204902780088F07931E39F
:1011A700A4E5F07983F388F07911E3A4E5F0798178
:1011B700F388F07921E3A4E5F07995F388F0795184
:1011C700E3A4E5F0799CF388F0792EE3A4E5F079C0
:1011D70099F36002D259E87985F388F07955E3A449
:1011E700E5F079A7F36002D26BD001D000D083D0AD
:1011F70082D0D0D0F0D0E0D0843275840000204572
:10120700FD00D2450075C044756F02756BA1756C02
:0D12170000756DFFC2C4D2C5002045FD006A
:10122400856E7D22758400002045FD00D245007541
:10123400C044756F02756BA0756C00756DFF857D7C
:101244006EC2C4D2C522758400002045FD00D2457B
:101254000075C044756F01756BE0F56CF56DF56E46
:10126400C2C4D2C522758400002045FD00D24500C9
:1012740075C044756F02756BA1857D6C886DC2C4A1
:10128400D2C5002045FD00E56E227584000020458E
:10129400FD00D2450075C044756F02756BA1756C75
:1012A40000756D00C2C4D2C5002045FD00E56E2264
:1012B400758400002045FD00D2450075C044756F5B
:1012C40002756BA0756C00756D00F56EC2C4D2C555
:1012D40022785C758400002045FD00D2450075C06D
:1012E40044756F02756BA0857D6C886D9015CDE893
:1012F40093F9E3F56EC2C4D2C5D8D8758400002032
:1013040045FD00D2450075C044756F02756BA0851C
:101314007D6C886D9015CDE893F9E3F56EC2C4D267
:10132400C5227853758400002045FD00D245007520
:10133400C044756F02756BA1857D6C886DC2C4D283
:10134400C5002045FD009015CDE893F9E56EF3D86E
:10135400D3758400002045FD00D2450075C0447556
:101364006F02756BA1857D6C886DC2C4D2C50020E7
:1013740045FD009015CDE893F9E56EF37814E27815
:1013840096F27812E2A2E09238A2E1923A7816E25A
:10139400F5657818E2F5667815E2F5697817E2A242
:1013A400E0924D781BE2A2E0925674FF7889F278BD
:1013B40024E27897F27822E2A2E09239A2E1923B09
:1013C4007826E2F517782AE2F5187825E2F56A78A6
:1013D40029E2A2E0924E782BE2A2E0925774FF78C1
:1013E40090F2781DE2A2E0925C781EE2A2E0925DA7
:1013F4007838E2A2E0925E7839E2A2E0925F784423
:10140400E2F5617845E2F5627847E2F5607834E226
:10141400F5157835E2F5167837E2F514784FE2A23F
:10142400E09254784CE2A2E09253780EE2F5097807
:101434000FE2F50F7807E3A2E0925A780DE3A2E0F9
:10144400925B7802E2F5047805E2F5067808E2F5A5
:101454000A780BE2F50C7803E2F5057809E2F50B5E
:101464007840E26004D2668002C2667841E2600499
:10147400D2678002C267783CE2B40800500854077F
:101484004470F5B08020B41000500854074468F547
:10149400B08013B41800500854074458F5B08006BF
:1014A40054074438F5B0783DE275840075D840752A
:1014B400DA42F5FC783EE275840075D84075DB426B
:1014C400F5FE783FE275840075D84075DC42F5EA94
:1014D400D260D261D262D263D264D265D26CD25568
:1014E400784AE2A2E6926D78575169F978A0E2B59C
:1014F400013978545169F978A3E2B5012E7858512D
:1015040069F978A1E2B5013A78555169F978A4E20C
:10151400B5012F78595169F978A2E2B5013B7856A3
:101524005169F978A5E2B501308043E978A0F2F574
:101534001B7854516978A3F2F51C751D001242D52D
:1015440080BBE978A1F2F51B7855516978A4F2F5CE
:101554001C751D011242D580BAE978A2F2F51B78F8
:1015640056516978A5F2F51C751D021242D5785AB8
:10157400758400002045FD00D2450075C044756F98
:1015840002756BA1857D6C886DC2C4D2C5002045EF
:0D159400FD009015CDE893F9E56EF3785B4E
:1015A100758400002045FD00D2450075C044756F6B
:1015B10002756BA1857D6C886DC2C4D2C5002045C2
:1015C100FD009015CDE893F9E56EF32202030405C1
:1015D100060708090A0B0C0D0E0F10111213141532
:1015E100161718191A1C1D1E20212223242526270F
:1015F10028292A2C38392F2D2E30313233343536E3
:1016010037404142434445464748494A4B4C4D4E79
:101611004F3A3B3C3D3E3F505152531B2B54555684
:10162100A3A4A5A0A1A25E5FC084C0E0C0F0C0D009
:10163100C082C083C000C001758400E5C1547F90A1
:03164100164473D9
:06164400D2C4C245C1D66C
:02164C008057C5
:07165400856BC2C2C5807B5B
:05165C00856CC28075E1
:06166400D2C4D2C5806C67
:02166C008041BB
:06167400D2C4D2C5805C67
:06167C00D2C4D2C5805467
:04168400C2C2804E10
:06168C00C2C4D2C5804477
:06169400D2C4C245803CF7
:10169C0085C26ED2C4C2458031E56B54FEF5C2C220
:1016AC00C58027E56FB40207856DC2156F801BE5F9
:1016BC006FB40112E56B30E006C2C4D2C5800B8555
:1016CC006EC2156F8004D2C4C245C2C3D001D00013
:1016DC00D083D082D0D0D0F0D0E0D08432758400CA
:1016EC00758850758400758922758C00758D4F75C1
:1016FC00840075C80475840075C90875CA9E75CBBD
:10170C00F575840175C80475C90875CA9E75CBF545
:10171C0075840275C80075C90875CAEF75CBFF755D
:10172C00C80475840075D90975D80075F9DA75FA8D
:10173C00E02275840075984075910F758401759839
:10174C00502275840075D49875840175D48875847D
:10175C000043D1032275840F75A43575A5FD75A6BC
:10176C00BF75A7FF75E13775E3442275840F758C3F
:10177C0067781EE4D5E0FDD8FAE58C30E7FB758977
:10178C000453A1DF75840075B7B075840F43A12095
:10179C00438901758D01758F01758E06E4D5E0FDC9
:1017AC00438902E58930E4FB759722538A7F2275C1
:1017BC00A20075A3032275840075C00475CF654320
:1017CC00C040C24522758400759A4375F80D759D0D
:1017DC00012275A8AA75B83075E60375E74175F74F
:1017EC00412275840075D84075DA4275DB4275DC90
:1017FC004275DD4275DE4275DF4275FCFF75FEFFFA
:10180C0075EAFF75ECFF75EEFF75E2FF221244AE30
:10181C001217D11217EE1216E912173E12174E12AA
:10182C001761D2A71217771217BB1217C21217DE45
:10183C0022F4F4F4F4F4F5F5F5F5F5F6F6F6F6F61F
:10184C00F7F7F7F7F7F8F8F8F8F8F9F9F9F9F9FA0A
:10185C00FAFAFAFAFBFBFBFBFBFCFCFCFCFCFDFDC7
:10186C00FDFDFDFEFEFEFEFEFFFFFFFFFF00000084
:10187C00000000000001010101010202020202034A
:10188C000303030304040404040505050505060607
:10189C0006060607070707070808080808090909C4
:1018AC0009090A0A0A0A0A0B0B0B0B0B0C0C0C0C81
:1018BC000C00000000000000000000000000000010
:1018CC00000000000000000000000000000000000C
:1018DC0000000000000000000000000000000000FC
:1018EC0000000000000000000101010101010101E4
:1018FC0001010101020202020202020303030303BB
:10190C00040404040505050606060707080809096A
:10191C000A0A0B0C0C0D0E0F1011121314151618BD
:10192C00191B1C1E20222426282A2D303336393C24
:10193C0040000B0C0C0D0E0F101112131415161871
:10194C00191B1C1E20222426282A2D303336393C04
:10195C004044484C51555B60666C72798088909914
:10196C00A2ABB6C0CCD8E5F30110213244576C8140
:10197C0098B1CAE60321426488AFD803316295CC92
:10198C00064384C9115FB00763C42B980C86089278
:10199C0023BE610FC6895731180D1124477CC31E15
:1019AC008D12AE62311B22488FF9873C1A245CC51C
:1019BC0063006210C78A5832190E1225487DC41F65
:1019CC008E13AF63321C234990FA883D1B255DC6EC
:1019DC006438469220F30F79364ABA8CC76F8C2440
:1019EC003FE51EF26B9373188DDD17477EC93BE301
:1019FC00D525E63019BA2D8EFB9275C5AA49CC5F58
:0D1A0C003173591CF524E98A539197BD618F
:101A1900E5B238EA47D114A6212D7AC2CA646FD437
:101A29008DA1284B425AF38393C8DDA719415095DC
:101A390083B3E605F4F4F4F4F4F5F5F5F5F5F6F603
:101A4900F6F6F6F6F7F7F7F7F8F8F8F8F8F9F9F916
:101A5900F9F9FAFAFAFAFAFBFBFBFBFBFCFCFCFCD2
:101A6900FCFDFDFDFDFDFEFEFEFEFEFFFFFFFFFF8F
:101A79000000000000000000010101010102020252
:101A89000202030303030304040404040505050512
:101A990005060606060607070707070808080808CF
:101AA90009090909090A0A0A0A0A0B0B0B0B0B0C8B
:101AB9000C0C0C0CE8E8E8E9E9EAEAEAEBEBECECF7
:101AC900ECEDEDEEEEEEEFEFF0F0F0F1F1F2F2F217
:101AD900F3F3F4F4F4F5F5F6F6F6F7F7F8F8F8F9A0
:101AE900F9FAFAFAFBFBFCFCFCFDFDFEFEFEFFFF2A
:101AF90000000000000000000101020202030304CB
:101B090004040505060606070708080809090A0A5C
:101B19000A0B0B0C0C0C0D0D0E0E0E0F0F101010E6
:101B2900111112121213131414141515161616176F
:101B39001718181880808080808080818181828236
:101B4900838485868687898A8B8C8E8F91929496D9
:101B590097999B9D9FA1A3A5A8AAACAFB1B4B6B90B
:101B6900BCBEC1C4C6C9CCCFD2D5D8DBDEE1E4E75F
:101B7900EAEDF0F3F7FAFDFDFAF7F3F0EDEAE7E441
:101B8900E1DEDBD8D5D2CFCCC9C6C4C1BEBCB9B69B
:101B9900B4B1AFACAAA8A5A3A19F9D9B9997969410
:101BA90092918F8E8C8B8A8987868685848382829F
:101BB900818181808080808080807F7F7F7E7E7D23
:101BC9007C7B7A7A797776757472716F6E6C6A69D3
:101BD900676563615F5D5B585654514F4C4A474492
:101BE900423F3C3A3734312E2B2825221F1C191627
:101BF90013100D09060300000306090D1013161929
:101C09001C1F2225282B2E3134373A3C3F424447AA
:101C19004A4C4F515456585B5D5F61636567696A09
:101C29006C6E6F717274757677797A7A7B7C7D7E4A
:101C39007E7F7F7F808080808080807F7F7F7E7EA7
:101C49007D7C7B7A7A797776757472716F6E6C6A3E
:101C590069676563615F5D5B585654514F4C4A47EC
:101C690044423F3C3A3734312E2B2825221F1C1978
:101C79001613100D090603000306090D1013161992
:101C89001C1F2225282B2E3134373A3C3F4244472A
:101C99004A4C4F515456585B5D5F61636567696A89
:101CA9006C6E6F717274757677797A7A7B7C7D7ECA
:101CB9007E7F7F7F80808080808080818181828219
:101CC900838485868687898A8B8C8E8F9192949658
:101CD90097999B9D9FA1A3A5A8AAACAFB1B4B6B98A
:101CE900BCBEC1C4C6C9CCCFD2D5D8DBDEE1E4E7DE
:101CF900EAEDF0F3F7FAFDFFFDFAF7F3F0EDEAE7A5
:101D0900E4E1DEDBD8D5D2CFCCC9C6C4C1BEBCB9EB
:101D1900B6B4B1AFACAAA8A5A3A19F9D9B9997966C
:101D29009492918F8E8C8B8A89878686858483820B
:101D39008281818100000000000000000000000095
:101D4900000000000000000000000000000000008A
:101D5900000000000000000000000000000000007A
:101D6900000000000000000000000000000000006A
:101D7900000000000000000000000000000000005A
:0D1D8900000000000000000000000000004D
:101D9600000000000000000000000000000000003D
:101DA600000000000000000000000000000000002D
:101DB60000000000000000FFFFFFFFFFFFFFFFFF26
:101DC600FFFFFFFFFFFFFFFFFFFFFFFFFFFFFFFF1D
:101DD600FFFFFFFFFFFFFFFFFFFFFFFFFFFFFFFF0D
:101DE600FFFFFFFFFFFFFFFFFFFFFFFFFFFFFFFFFD
:101DF600FFFFFFFFFFFFFFFFFFFFFFFFFFFFFFFFED
:101E0600FFFFFFFFFFFFFFFFFFFFFFFFFFFFFFFFDC
:101E1600FFFFFFFFFFFFFFFFFFFFFFFFFFFFFFFFCC
:101E2600FFFFFFFFFFFFFFFFFFFFFFFFFFFFFFFFBC
:101E3600FFFFFFFFFFFFFFFFFFFFFFFFFFFFFFFFAC
:101E4600FFFFFFFFFFFFFFFFFFFFFFFFFFFFFFFF9C
:101E5600FFFFFFFFFFFFFFFFFFFFFFFFFFFFFFFF8C
:101E6600FFFFFFFFFFFFFFFFFFFFFFFFFFFFFFFF7C
:101E7600FFFFFFFFFFFFFFFFFFFFFFFFFFFFFFFF6C
:101E8600FFFFFFFFFFFFFFFFFFFFFFFFFFFFFFFF5C
:101E9600FFFFFFFFFFFFFFFFFFFFFFFFFFFFFFFF4C
:101EA600FFFFFFFFFFFFFFFFFFFFFFFFFFFFFFFF3C
:101EB600FFFFFFFFFFFFFF00000000000000000023
:101EC600000000000000000000000000000000000C
:101ED60000000000000000000000000000000000FC
:101EE60000000000000000000000000000000000EC
:101EF60000000000000000000000000000000000DC
:101F060000000000000000000000000000000000CB
:101F160000000000000000000000000000000000BB
:101F260000000000000000000000000000000000AB
:101F3600000000000000007F7D7B79777573716F6C
:101F46006D6B69676563615F5D5B59575553514FAB
:101F56004D4B49474543413F3D3B39373533312F9B
:101F66002D2B29272523211F1D1B19171513110F8B
:101F76000D0B090705030100020406080A0C0E10E2
:101F8600121416181A1C1E20222426282A2C2E303B
:101F9600323436383A3C3E40424446484A4C4E502B
:101FA600525456585A5C5E60626466686A6C6E701B
:101FB600727476787A7C7E80828486888A8C8E900B
:101FC600929496989A9C9EA0A2A4A6A8AAACAEB0FB
:101FD600B2B4B6B8BABCBEC0C2C4C6C8CACCCED0EB
:101FE600D2D4D6D8DADCDEE0E2E4E6E8EAECEEF0DB
:101FF600F2F4F6F8FAFCFEFFFDFBF9F7F5F3F1EF64
:10200600EDEBE9E7E5E3E1DFDDDBD9D7D5D3D1CFEA
:10201600CDCBC9C7C5C3C1BFBDBBB9B7B5B3B1AFDA
:10202600ADABA9A7A5A3A19F9D9B99979593918FCA
:102036008D8B898785838180828486888A8C8E9021
:10204600929496989A9C9EA0A2A4A6A8AAACAEB07A
:10205600B2B4B6B8BABCBEC0C2C4C6C8CACCCED06A
:10206600D2D4D6D8DADCDEE0E2E4E6E8EAECEEF05A
:10207600F2F4F6F8FAFCFEFEFCFAF8F6F4F2F0EEEC
:10208600ECEAE8E6E4E2E0DEDCDAD8D6D4D2D0CE7A
:10209600CCCAC8C6C4C2C0BEBCBAB8B6B4B2B0AE6A
:1020A600ACAAA8A6A4A2A09E9C9A98969492908E5A
:1020B6008C8A88868482807E7C7A78767472706E4A
:1020C6006C6A68666462605E5C5A58565452504E3A
:1020D6004C4A48464442403E3C3A38363432302E2A
:1020E6002C2A28262422201E1C1A18161412100E1A
:1020F6000C0A080604020000020406080A0C0E1068
:0D210600121416181A1C1E20222426282A46
:102113002C2E30323436383A3C3E40424446484A0C
:102123004C4E50525456585A5C5E60626466686AFC
:102133006C6E70727476787A7C7EFFFEFDFCFBFA1F
:10214300F9F8F7F6F5F4F3F2F1F0EFEEEDECEBEA74
:10215300E9E8E7E6E5E4E3E2E1E0DFDEDDDCDBDA64
:10216300D9D8D7D6D5D4D3D2D1D0CFCECDCCCBCA54
:10217300C9C8C7C6C5C4C3C2C1C0BFBEBDBCBBBA44
:10218300B9B8B7B6B5B4B3B2B1B0AFAEADACABAA34
:10219300A9A8A7A6A5A4A3A2A1A09F9E9D9C9B9A24
:1021A300999897969594939291908F8E8D8C8B8A14
:1021B300898887868584838281807F7E7D7C7B7A04
:1021C300797877767574737271706F6E6D6C6B6AF4
:1021D300696867666564636261605F5E5D5C5B5AE4
:1021E300595857565554535251504F4E4D4C4B4AD4
:1021F300494847464544434241403F3E3D3C3B3AC4
:10220300393837363534333231302F2E2D2C2B2AB3
:10221300292827262524232221201F1E1D1C1B1AA3
:10222300191817161514131211100F0E0D0C0B0A93
:10223300090807060504030201000001020304055F
:10224300060708090A0B0C0D0E0F101112131415B3
:10225300161718191A1B1C1D1E1F202122232425A3
:10226300262728292A2B2C2D2E2F30313233343593
:10227300363738393A3B3C3D3E3F40414243444583
:10228300464748494A4B4C4D4E4F50515253545573
:10229300565758595A5B5C5D5E5F60616263646563
:1022A300666768696A6B6C6D6E6F70717273747553
:1022B300767778797A7B7C7D7E7F80818283848543
:1022C300868788898A8B8C8D8E8F90919293949533
:1022D300969798999A9B9C9D9E9FA0A1A2A3A4A523
:1022E300A6A7A8A9AAABACADAEAFB0B1B2B3B4B513
:1022F300B6B7B8B9BABBBCBDBEBFC0C1C2C3C4C503
:10230300C6C7C8C9CACBCCCDCECFD0D1D2D3D4D5F2
:10231300D6D7D8D9DADBDCDDDEDFE0E1E2E3E4E5E2
:10232300E6E7E8E9EAEBECEDEEEFF0F1F2F3F4F5D2
:10233300F6F7F8F9FAFBFCFDFEFF00030507090BAE
:102343000D0F11131517191B1D1F21232527292BCA
:102353002D2F31333537393B3D3F41434547494BBA
:102363004D4F51535557595B5D5F61636567696BAA
:102373006D6F71737577797B7D7F81838587898B9A
:102383008D8F91939597999B9D9FA1A3A5A7A9AB8A
:10239300ADAFB1B3B5B7B9BBBDBFC1C3C5C7C9CB7A
:1023A300CDCFD1D3D5D7D9DBDDDFE1E3E5E7E9EB6A
:1023B300EDEFF1F3F5F7F9FBFDFF0000000000007E
:1023C300000000000000000000000000000000000A
:1023D30000000000000000000000000000000000FA
:1023E30000000000000000000000000000000000EA
:1023F30000000000000000000000000000000000DA
:1024030000000000000000000000000000000000C9
:1024130000000000000000000000000000000000B9
:1024230000000000000000000000000000000000A9
:10243300000000000000000000000012243A49558B
:102443005E666D73797E83878B8E9295989B9DA034
:10245300A2A5A7A9ABADAFB1B3B4B6B8B9BBBCBE67
:10246300BFC1C2C3C4C6C7C8C9CACBCDCECFD0D1E2
:10247300D2D3D4D4D5D6D7D8D9DADBDBDCDDDEDFD3
:0D248300DFE0E1E1E2E3E4E4E5E6E6E7E8BE
:10249000E8E9E9EAEBEBECECEDEEEEEFEFF0F0F172
:1024A000F1F2F3F3F4F4F5F5F6F6F7F7F8F8F8F9D6
:1024B000F9FAFAFBFBFCFCFCFDFDFEFEFF00000050
:1024C000000000000000000000000000000000000C
:1024D00000000000000000000000000000000000FC
:1024E00000000000000000000000000000000000EC
:1024F00000000000000000000000000000000000DC
:1025000000000000000000000000000000000000CB
:1025100000000000000000000000000000000000BB
:1025200000000000000000000000000000000000AB
:102530000000000000000000000000000000020594
:102540000D151C23292F343A3E43474C5054575BFA
:102550005E6265686B6E717376797B7E808385873A
:10256000898C8E90929496989A9C9D9FA1A3A5A6E3
:10257000A8AAABADAFB0B2B3B5B6B8B9BBBCBDBF1E
:10258000C0C1C3C4C5C7C8C9CBCCCDCECFD1D2D3AF
:10259000D4D5D6D8D9DADBDCDDDEDFE0E1E2E3E476
:1025A000E5E6E7E8E9EAEBECEDEEEFF0F1F2F3F463
:1025B000F5F6F6F7F8F9FAFBFCFCFDFEFF0000006B
:1025C000000000000000000000000000000000000B
:1025D00000000000000000000000000000000000FB
:1025E00000000000000000000000000000000000EB
:1025F00000000000000000000000000000000000DB
:1026000000000000000000000000000000000000CA
:1026100000000000000000000000000000000000BA
:1026200000000000000000000000000000000000AA
:102630000000000000000000000000000000010198
:1026400001010203030405060708090A0B0C0D0E1D
:102650000F101213141517181A1B1C1E1F212224E9
:102660002627292A2C2E3031333537383A3C3E4044
:10267000424446484A4C4E50525456585A5C5E604A
:10268000636567696B6E70727577797C7E80838510
:10269000888A8C8F919496999B9EA1A3A6A8ABAE95
:1026A000B0B3B5B8BBBEC0C3C6C8CBCED1D4D6D9E3
:1026B000DCDFE2E5E8EAEDF0F3F6F9FCFF0000000C
:1026C000000000000000000000000000000000000A
:1026D00000000000000000000000000000000000FA
:1026E00000000000000000000000000000000000EA
:1026F00000000000000000000000000000000000DA
:1027000000000000000000000000000000000000C9
:1027100000000000000000000000000000000000B9
:1027200000000000000000000000000000000000A9
:1027300000000000000000000000000000D2A779A7
:102740000274B078A8F2E978A9F2B4020BE3F403BA
:10275000547F78AAF2022958B4030BE31403547F80
:1027600078AAF2022958B4050BE3F403547F78AA3F
:10277000F2022958B4080BE3F403547F78AAF2025A
:102780002958B4090BE31403547F78AAF20229589C
:10279000B40B0BE3F403547F78AAF2022958B41067
:1027A0000AE303547F78AAF2022958B4110AE3031A
:1027B000547F78AAF2022958B4200AE303547F78A0
:1027C000AAF2022958B4210AE303547F78AAF2023C
:1027D0002958B4300AE303547F78AAF2022958B486
:1027E000310AE303547F78AAF2022958B4320BE38A
:1027F0001403547F78AAF2022958B43309E303542E
:0D2800007F78AAF22158B4340AE31403547F
:10280D007F78AAF22158B4350AE31403547F78AACD
:10281D00F22158B4360AE31403547F78AAF22158F2
:10282D00B4370AE31403547F78AAF22158B4440A4A
:10283D00E31403547F78AAF22158B4450AE3140334
:10284D00547F78AAF22158B4460AE31403547F78D2
:10285D00AAF22158B4470AE31403547F78AAF2214F
:10286D0058B43D0AE3F403547F78AAF22158B43EDC
:10287D000AE3F403547F78AAF22158B43F0AE3F433
:10288D0003547F78AAF22158B45009E303547F789A
:10289D00AAF22158B45109E303547F78AAF22158C2
:1028AD00B41609E314547F78AAF22158B42609E32B
:1028BD0014547F78AAF22158B41C02800DB42C0256
:1028CD008008B40E028003B40F2BE3B41804740017
:1028DD00801EB40C0474018017B4060474028010B9
:1028ED00B4030474038009B40104740480027400F9
:1028FD0078AAF28056B41325E3B40D00500D75F08F
:10290D0005A42440547F78AAF28040F475F005A404
:10291D00547FF8743B98547F78AAF2802EB4232507
:10292D00E3B40D00500D75F005A42440547F78AA32
:10293D00F28018F475F005A4547FF8743B98547F19
:10294D0078AAF28006E3547F78AAF2751F03D24667
:10295D00304707758401D299C2472046FD09B95702
:10296D000280030227419000A0795774B078A8F235
:10297D00E978A9F2E0547F78AAF2751F03D24620B8
:10298D0046FD09A3B95DE474B078A8F2745D78A929
:10299D00F2E57D78AAF2751F03D2462046FD74B08C
:1029AD0078A8F2745E78A9F2785EE278AAF2751FC3
:1029BD0003D2462046FD74B078A8F2745F78A9F270
:1029CD00785FE278AAF2751F03D2462046FD74F0B7
:1029DD0078ACF2747D78ABF2740078A8F2794AE3A2
:1029ED00540F78A9F274F778AAF2751F05D2462014
:1029FD0046FD74F078ACF2747D78ABF2740178A872
:102A0D00F2794AE35430C40478A9F274F778AAF243
:102A1D00751F05D2462046FD74F078ACF2747D78B2
:102A2D00ABF2740478A8F2794AE35440C4030378F6
:102A3D00A9F274F778AAF2751F05D2462046FDC299
:102A4D00A722614BF8E51EB40109E8B47DF4751EAB
:102A5D000261B4B40251E8B40005751E0361B4B44B
:102A6D000105751E0461B4B40305751E0561B4B48A
:102A7D000405751E0661B4B40505751E0761B4B471
:102A8D000605751E0861B4B40705751E0961B4B459
:102A9D000805751E0A61B4B40905751E0B61B4B441
:102AAD000AA0751E0C61B4B4030C794AE354F028E6
:102ABD00F3751EFF61B4B40414E8600114C454F03E
:102ACD00F8794AE3540F28F3751EFF61B4B405116C
:102ADD00E87007C269751EFF61B4D269751EFF618A
:102AED00B4B4061DE8700DC26D794AE3C2E6F37504
:102AFD001EFF61B4D26D794AE3D2E6F3751EFF6114
:102B0D00B4B40707D23C751EFF61B4B40807D23DBB
:102B1D00751EFF61B4B40908E8F57D751EFF61B43B
:102B2D00B40A07D23F751EFF807DB40B07D26E75B8
:102B3D001EFF8073B40C07D26F751EFF8069C268CB
:102B4D00751E008062C084C0E0C0F0C0D0C082C0DD
:102B5D0083C000C001758401E59810E10310E05AAF
:102B6D00F598304642E51FB4050978ACE2F59915A4
:0D2B7D001F8034B4040978ABE2F599151FF0
:102B8A008028B4030978A8E2F599151F801CE51F6F
:102B9A00B4020978A9E2F599151F800EE51FB40160
:102BAA000978AAE2F599151FC246D001D000D08350
:102BBA00D082D0D0D0F0D0E0D08432415175840197
:102BCA00F598E5992068F420E71020420910410899
:102BDA00D241F57B80D481638165B4F000501AF547
:102BEA007AC24154F0B4C006D242D24080BCB4D0BA
:102BFA000280F5C242D24080B1C240B4F007D26826
:102C0A00751E0180A5B4F707C268751E00809BB4C3
:102C1A00F838B24A305A0BD50908790EE3F5097526
:102C2A000800305B0BD50F08790FE3F50F750E001E
:102C3A00304D0AD56707791CE3F567D24B304E0A47
:102C4A00D56807792CE3F568D24CB4FA0261B4B4BA
:102C5A00FB0261B4B4FC0061B4F57BF57CE57A54FF
:102C6A000FF5F0794AE3540F65F0600261B4E57A32
:102C7A0054F0B48002800AB49047D2A7E57CB4002D
:102C8A00427503017974E7B57B2CE5214503F521EB
:102C9A00E5244503F524E503F45522F522E503F47A
:102CAA005525F525E503F45523F523E503F45526C3
:102CBA00F526C2A761B4E50323F50309B978C7610C
:102CCA00B4A1CF794AE354F0B420077441B57B002C
:102CDA0040ED7906E36003750800790CE36003753B
:102CEA000E007502007503FE7974E7B57B3EE52395
:102CFA005503F523E5265503F526E5215503F52168
:102D0A00E5245503F524E503F44522F522E503F409
:102D1A004525F525E5205503F520E5022470F974CB
:102D2A0000F7E5022410F97400F7800BE50323F598
:102D3A0003050209B978B3750200750301E520B4E9
:102D4A000F24794AE354F0700261B4B24F304F0C49
:102D5A00C219C209D211C201E520800AC21AC20AE6
:102D6A00D212C202E520F8E813F85009E50323F568
:102D7A0003050280F2E5022470F97400F7E50224E3
:102D8A0010F97400F7E5224503F522E5254503F518
:102D9A0025E5204503F520E5022474F9E57BF7E5EE
:102DAA000224ACC0E090233D794EE32583F583D01D
:102DBA00E0F9E57C93305303F361B474FFF361B433
:102DCA00023677C1A7B4B0F8E57BB401F6791AE305
:102DDA00B4000261B4B401097932E57C2304F361D9
:102DEA00B4B402087933E57C23F361B4B4030B79F4
:102DFA0010E57C23F37920F361B4B4040B7911E56F
:102E0A007C23F37921F361B4B40507E57C7996F361
:102E1A0061B4B40607E57C7997F361B4B4070AE5AF
:102E2A007C7996F37997F361B4B40807E57C791550
:102E3A00F361B4B40907E57C7925F361B4B40A0AED
:102E4A00E57C7915F37925F361B4B40B14793DE582
:102E5A007C23F4F375840075D84075DA42F5FC6179
:102E6A00B4B40C14793EE57C23F4F375840075D868
:102E7A004075DB42F5FE61B4B40D14793FE57C235D
:102E8A00F4F375840075D84075DC42F5EA61B4B490
:102E9A000E0261B4B40F0261B461B461B43069FB6B
:102EAA00D23EE57B10E608C333C333902EC173C309
:102EBA0033C333902FC1730230C1000230C4000201
:102ECA0030C7000230D1000230DB000230E30002DA
:102EDA0030ED000230F5000231010002310B000230
:102EEA0031150002311D000231270002312F000284
:0D2EFA00313B00023173000231AB000231A8
:102F0700B4000231BD000231DD000231E9000231B7
:102F1700F90002320C00023215000232210002329F
:102F270029000232310002323900023245000232F2
:102F37007D00023289000232950002329800023287
:102F4700A1000232AA000232CA000232D6000232BF
:102F5700E6000232F70002330000023309000233B1
:102F6700110002331D000233250002333100023302
:102F7700690002337A0002338B0002339C0002336C
:102F8700A5000233AE000233B8000233C10002339A
:102F9700CB000233D5000233DF000233E9000233EE
:102FA700F5000234010002340B000234150002342C
:102FB70073000234880002349D000234B2000234E8
:102FC700C3000234D4000234DE000234E8000234C5
:102FD700F2000234FC00023506000235100002350B
:102FE7001A00023524000235270002353800023561
:102FF7004900023551000235590002355C0002359F
:10300700650002356E000235780002358200023510
:1030170093000235A4000235B5000235B800023529
:10302700BB000235BE000235C1000235C4000235BF
:10303700C7000235CA000235D2000235DA00023570
:10304700DD000235E0000235E3000235E600023517
:10305700E9000235EC000235EF000235F2000235D7
:10306700F5000235F8000235FB000235FE00023696
:103077000100023604000236070002360A00023653
:103087000D00023610000236130002361600023613
:10309700190002361C0002361F00023622000236D3
:1030A70025000236450002365C0002366B00023608
:1030B7006E000236710002367400022BB4022BB484
:1030C7007902E57C23F4F3022BB47903E57C23042E
:1030D700F3022BB47904E57CF3022BB47905E57C84
:1030E70023F4F3022BB47906E57CF3022BB47907BA
:1030F700E57CF3A2E0925A022BB47908E57C23F42D
:10310700F3022BB47909E57C2304F3022BB4790A83
:10311700E57CF3022BB4790BE57C23F4F3022BB4A3
:10312700790CE57CF3022BB4790DE57CF3A2E092F0
:103137005B022BB4790EE57CB400087418F3F5092B
:10314700022BB4B40108740CF3F509022BB4B402D2
:10315700087406F3F509022BB4B403087403F3F5F6
:1031670009022BB47401F3F509022BB4790FE57C3E
:10317700B400087418F3F50F022BB4B40108740CEB
:10318700F3F50F022BB4B402087406F3F50F022B04
:10319700B4B403087403F3F50F022BB47401F3F509
:1031A7000F022BB47910E57C23F3022BB47911E5D8
:1031B7007C23F3022BB47912E57CF3B40007C23801
:1031C700C23A022BB4B40107D238C23A022BB4C2B6
:1031D70038D23A022BB4E57C90183D937913F30269
:1031E7002BB47996E57C303A02C2E6F37914F30200
:1031F7002BB47915E57CF3F569B400067914E37906
:1032070096F3022BB47916E57C04F3022BB47917F5
:10321700E57CF3A2E0924D022BB47918E57CF3022A
:103227002BB47919E57CF3022BB4791AE57CF30208
:103237002BB4791BE57CF3A2E09256022BB4791CE0
:10324700E57CB400087418F3F567022BB4B40108E1
:10325700740CF3F567022BB4B402087406F3F56730
:10326700022BB4B403087403F3F567022BB474019B
:0D327700F3F567022BB4791DE57CF3A2E0AE
:10328400925C022BB4791EE57CF3A2E0925D022BE2
:10329400B4022BB47920E57C23F3022BB47921E525
:1032A4007C23F3022BB47922E57CF3B40007C23902
:1032B400C23B022BB4B40107D239C23B022BB4C2C5
:1032C40039D23B022BB4E57C90183D937923F30269
:1032D4002BB47997E57C303B02C2E6F37924F30200
:1032E4002BB47925E57CF3B400067924E37997F3CC
:1032F400022BB47926E57C04F3022BB47927E57C10
:1033040023F3022BB47928E57CF3022BB47929E565
:103314007CF3A2E0924E022BB4792AE57CF3022BD3
:10332400B4792BE57CF3A2E09257022BB4792CE517
:103334007CB400087418F3F568022BB4B401087463
:103344000CF3F568022BB4B402087406F3F56802B2
:103354002BB4B403087403F3F568022BB47401F3BB
:10336400F568022BB4792DE57CF37005C258022B65
:10337400B4D258022BB4792EE57CF37005C25902FD
:103384002BB4D259022BB4792FE57CF37005C255C6
:10339400022BB4D255022BB47930E57C23F3022BF3
:1033A400B47931E57C23F3022BB47932E57C230430
:1033B400F3022BB47933E57C23F3022BB47934E59F
:1033C4007C2304F3022BB47935E57C2304F3022B2C
:1033D400B47936E57C2304F3022BB47937E57C23F6
:1033E40004F3022BB47938E57CF3A2E0925E022B5D
:1033F400B47939E57CF3A2E0925F022BB4793AE523
:103404007CF3D264022BB4793BE57CF3D265022BC6
:10341400B4E57CB40800501254074470A2B792E794
:10342400F5B0793CE57CF3022BB4B410005012548F
:10343400074468A2B792E7F5B0793CE57CF3022B28
:10344400B4B41800501254074458A2B792E7F5B028
:10345400793CE57CF3022BB4B42000500F540744AC
:1034640038A2B792E7F5B0793CE57CF3022BB47946
:103474003DE57C23F4F375840075D84075DA42F594
:10348400FC022BB4793EE57C23F4F375840075D8F3
:103494004075DB42F5FE022BB4793FE57C23F4F35F
:1034A40075840075D84075DC42F5EA022BB4794086
:1034B400E57CF36005D266022BB4C266022BB479B4
:1034C40041E57CF36005D267022BB4C267022BB4DA
:1034D4007942E57CF3D263022BB47943E57CF3D2E1
:1034E40061022BB47944E57C2304F3022BB47945BF
:1034F400E57C2304F3022BB47946E57C2304F30230
:103504002BB47947E57C2304F3022BB47948E57C9A
:10351400F3D262022BB47949E57CF3D260022BB476
:10352400022BB4794BE57CF36005D254022BB4C270
:1035340054022BB4794CE57CF36005D253022BB4CE
:10354400C253022BB4794DE57CF3022BB4794EE5DA
:103554007CF3022BB4022BB47950E57C23F3022BC9
:10356400B47951E57C23F3022BB47952E57C5403FE
:10357400F3022BB47953E57C5403F3022BB479544E
:10358400E57CF37005C26A022BB4D26A022BB479CB
:1035940055E57CF37005C26B022BB4D26B022BB4DD
:1035A4007956E57CF37005C26C022BB4D26C022B05
:1035B400B4022BB4022BB4022BB4022BB4022BB4EE
:1035C400022BB4022BB4795EE57CF3022BB4795F51
:1035D400E57CF3022BB4022BB4022BB4022BB4020D
:1035E4002BB4022BB4022BB4022BB4022BB4022B47
:0D35F400B4022BB4022BB4022BB4022BB492
:10360100022BB4022BB4022BB4022BB4022BB40252
:103611002BB4022BB4022BB4022BB4022BB4022B19
:10362100B4022BB4E57CB401005005F51C022BB4A7
:10363100B402005005F51C022BB4B403005002F58E
:103641001C022BB4E51CB402004009E57C541FF5B3
:103651001B022BB4E57CF51B022BB4E57CB4030003
:103661004003022BB4F51D022BB4022BB4022BB480
:10367100022BB4022BB4B4E011E57C205405901A5E
:103681003D8003901ABD93794FF3B4C007E57CB434
:103691000A005000022BB420222426282A2C2E3086
:1036A100323436383A3C3E40424446484A4C4E5009
:1036B100525456585A5C5E60626466686A6C6E70F9
:1036C100727476787A7C7E80828486888A8C8E90E9
:1036D100929496989A9C9E9E9EA0A2A4A6A8AAACFB
:1036E100AEB0B2B4B6B8BABCBEC0C2C4C6C8CACC09
:1036F100CED0D2D4D6D8DADCDEE0E2E4E6E8EAECF9
:10370100EEF0F2F4F6F8FAFCFEFFFFFFFFFFFFFF19
:10371100FFFFFFFFFFFFFF00102033404A525A60B6
:10372100656A6E7276797D808285878A8C8E9092A9
:10373100949698999B9D9E9FA1A2A4A5A6A7A9AA8C
:10374100ABACADAEAFB0B1B2B3B4B5B6B7B8B8B952
:10375100BABBBCBCBDBEBFBFC0C1C1C2C3C4C4C56E
:10376100C5C6C7C7C8C8C9CACACBCBCCCCCDCECEBB
:10377100CFCFD0D0D1D1D2D2D3D3D3D4D4D5D5D623
:10378100D6D7D7D7D8D8D9D9DADADADBDBDCDCDCA3
:10379100DDDDDDDEDEDFDFDFE0E0E0E1E1E1E2E231
:1037A100E2E3E3E3E4E4E4E5E5E5E6E6E6E7E7E7CB
:1037B100E7E8E8E8E9E9E9EAEAEAEAEBEBEBECEC6D
:1037C100ECECEDEDEDEDEEEEEEEEEFEFEFEFF0F018
:1037D100F0F0F1F1F1F1F2F2F2F2F3F3F3F3F4F4C8
:1037E100F4F4F5F5F5F5F5F6F6F6F6F7F7F7F7F77C
:1037F100F8F8F8F8F8F9F9F9F9F9FAFAFAFAFAFB36
:10380100FBFBFBFBFCFCFCFCFCFDFDFDFDFDFEFEF2
:10381100FEFEFEFEFFFFFFF59B30FFFDC2FF22759E
:103821008400759A4375840FC2A2C2A17584007485
:103831000612381875840FD2A1D2A22275840075A0
:103841009A4375840FC2A2C2A17584007404123810
:103851001875840FD2A2D2A122758400759A43757E
:10386100840FC2A2C2A175840074501238187584E5
:103871000FD2A2D2A122C0E012385A75840FC2A27F
:10388100C2A17584007401123818D0E0123818757D
:10389100840FD2A2D2A122758400759A4375840F38
:1038A100C2A275840074051238187400123818E524
:1038B1009B75840FD2A2D2A122758400759A43759B
:1038C100840FC2A27584007435123818740012383E
:1038D10018E59B75840FD2A2D2A1221238207584DB
:1038E1000FC2A2C2A1758400746012381875840FCA
:1038F100D2A1D2A2119820E0FB2212382075840FA8
:10390100C2A2C2A175840074D8123818E519123800
:1039110018E583123818E58212381875840FD2A180
:10392100D2A2119820E0FB2212382075840FC2A286
:10393100C2A17584007452123818E519123818E5BD
:1039410083123818E58212381875840FD2A1D2A2D9
:10395100119820E0FB22758400759A4375840FC28B
:10396100A27584007403123818E519123818E5831A
:0D397100123818E582123818740012381848
:10397E00E59B75840FD2A222C0E012382075840F09
:10398E00C2A2C2A17584007402123818E519123849
:10399E0018E583123818E582123818D0E01238185C
:1039AE0075840FD2A2D2A112389820E0FA22758423
:1039BE000FC2A27584007490123818740012381851
:1039CE001238180412381814123818E59B75840F23
:1039DE00D2A2227400023877758400759A437584DA
:1039EE000FC2A3C2A1758400740612381875840F15
:1039FE00D2A1D2A322758400759A4375840FC2A3F7
:103A0E00C2A1758400740412381875840FD2A3D223
:103A1E00A122758400759A4375840FC2A3C2A17545
:103A2E008400745012381875840FD2A3D2A122C00C
:103A3E00E0123A2075840FC2A3C2A17584007401EE
:103A4E00123818D0E012381875840FD2A3D2A122E2
:103A5E00758400759A4375840FC2A375840074052E
:103A6E001238187400123818E59B75840FD2A3D241
:103A7E00A122758400759A4375840FC2A3758400C4
:103A8E0074351238187400123818E59B75840FD2ED
:103A9E00A3D2A1221239E675840FC2A3C2A17584E6
:103AAE0000746012381875840FD2A1D2A3515E2013
:103ABE00E0FB221239E675840FC2A3C2A175840001
:103ACE0074D8123818E519123818E583123818E52B
:103ADE008212381875840FD2A1D2A3515E20E0FB5A
:103AEE00221239E675840FC2A3C2A17584007452E6
:103AFE00123818E519123818E583123818E58212B3
:103B0E00381875840FD2A1D2A3515E20E0FB227526
:103B1E008400759A4375840FC2A3758400740312D2
:103B2E003818E519123818E583123818E58212385C
:103B3E00187400123818E59B75840FD2A322C0E0CA
:103B4E001239E675840FC2A3C2A1758400740212E5
:103B5E003818E519123818E583123818E58212382C
:103B6E0018D0E012381875840FD2A3D2A1123A5E83
:103B7E0020E0FA2275840FC2A37584007490123867
:103B8E001874001238181238180412381814123813
:103B9E0018E59B75840FD2A3227400023A3DC084AF
:103BAE00C0E0C0F0C0D0C082C083C000C001758428
:103BBE0000E59810E10310E043758400F598304657
:103BCE002AE51FB4030978A8E2F599151F801CE5B4
:103BDE001FB4020978A9E2F599151F800EE51FB4EE
:103BEE00010978AAE2F599151FC246D001D000D07E
:103BFE0083D082D0D0D0F0D0E0D08432758400F55E
:103C0E0098E599F8852E82852F83E51DB40013E87B
:103C1E0012456075840075D84075DD42E583F5EC7C
:103C2E008030B40113E812459275840075D8407542
:103C3E00DE42E583F5EE801AB402B0E81245C47593
:103C4E00840075D84075DF42E583F5E2B4C0039079
:103C5E007FFFA385822E85832F8090740212124AD5
:103C6E00740091BC740112124A740091BC74041257
:103C7E00124A740091BC740812124A740091BC75F9
:103C8E008400002045FD00D2450075C044756F01CB
:103C9E00756B50756CAF756DAF756E00C2C4D2C5C5
:103CAE0022D260D261D262D263D264D26522F890FF
:103CBE003EB293758400002045FD00D2450075C0CC
:103CCE0044756F00756B882430F56CC2C4D2C5E89C
:103CDE00903E3293758400002045FD00D24500755C
:0D3CEE00C044756F00756B882430F56CC202
:103CFB00C4D2C522F8903FB293758400002045FDD5
:103D0B0000D2450075C044756F00756B88F56CC2A9
:103D1B00C4D2C5E8903F3293758400002045FD0066
:103D2B00D2450075C044756F00756B88F56CC2C4C5
:103D3B00D2C522F8903EB293758400002045FD0059
:103D4B00D2450075C044756F00756B88F56CC2C4A5
:103D5B00D2C5E8903E3293758400002045FD00D219
:103D6B00450075C044756F00756B88F56CC2C4D285
:103D7B00C522F890403293758400002045FD00D297
:103D8B00450075C044756F00756B88F56CC2C4D265
:103D9B00C5E89040B293758400002045FD00D245E4
:103DAB000075C044756F00756B88F56CC2C4D2C5C5
:103DBB00E890413293758400002045FD00D2450008
:103DCB0075C044756F00756B88F56CC2C4D2C5E8BD
:103DDB009041B293758400002045FD00D2450075DB
:103DEB00C044756F00756B88F56CC2C4D2C5227563
:103DFB008400002045FD00D2450075C044756F005E
:103E0B00756B88756C78C2C4D2C52275840000208E
:103E1B0045FD00D2450075C044756F00756B887504
:103E2B006CFFC2C4D2C522A9A9A8A7A6A6A5A4A403
:103E3B00A3A2A2A1A1A0A0A9A9A8A7A6A6A5A4A434
:103E4B00A3A2A2A1A1A0A0A9A9A8A7A6A6A5A4A424
:103E5B00A3A2A2A1A1A0A0A9A9A8A7A6A6A5A4A414
:103E6B00A3A2A2A1A1A0A0A9A9A8A7A6A6A5A4A404
:103E7B00A3A2A2A1A1A0A0A9A9A8A7A6A6A5A4A4F4
:103E8B00A3A2A2A1A1A0A0A9A9A8A7A6A6A5A4A4E4
:103E9B00A3A2A2A1A1A0A0A9A9A8A7A6A6A5A4A4D4
:103EAB00A3A2A2A1A1A0A0B7B7B7B7B7B7B7B7B72F
:103EBB00B7B7B7B7B7B7B7B6B6B6B6B6B6B6B6B690
:103ECB00B6B6B6B6B6B6B6B5B5B5B5B5B5B5B5B590
:103EDB00B5B5B5B5B5B5B5B4B4B4B4B4B4B4B4B490
:103EEB00B4B4B4B4B4B4B4B3B3B3B3B3B3B3B3B390
:103EFB00B3B3B3B3B3B3B3B2B2B2B2B2B2B2B2B290
:103F0B00B2B2B2B2B2B2B2B1B1B1B1B1B1B1B1B18F
:103F1B00B1B1B1B1B1B1B1B0B0B0B0B0B0B0B0B08F
:103F2B00B0B0B0B0B0B0B02929282726262524245C
:103F3B002322222121202029292827262625242433
:103F4B002322222121202029292827262625242423
:103F5B002322222121202029292827262625242413
:103F6B002322222121202029292827262625242403
:103F7B0023222221212020292928272626252424F3
:103F8B0023222221212020292928272626252424E3
:103F9B0023222221212020292928272626252424D3
:103FAB00232222212120203737373737373737372E
:103FBB00373737373737373636363636363636368F
:103FCB00363636363636363535353535353535358F
:103FDB00353535353535353434343434343434348F
:103FEB00343434343434343333333333333333338F
:103FFB00333333333333333232323232323232328F
:10400B00323232323232323131313131313131318E
:10401B00313131313131313030303030303030308E
:10402B0030303030303030B7B7B7B7B7B7B6B6B6C9
:10403B00B6B6B6B5B5B5B5B5B5B4B4B4B4B4B4B32A
:10404B00B3B3B3B3B3B2B2B2B2B2B2B1B1B1B1B145
:10405B00B1B0B0B0B0B0B0B0B0B0B0B0B0B0B0B054
:0D406B00B0B0B0B0B0B0B0B0B0B0B0B0B058
:10407800B0B0B0B0B0B0B0B0B0B0B0B0B0B0B0B038
:10408800B0B0B0B0B0B0B0B1B1B1B1B1B2B2B2B21B
:10409800B2B3B3B3B3B3B4B4B4B4B4B5B5B5B5B5DA
:1040A800B6B6B6B6B6B7B7B7B7B7A9A7A5A3A1A00E
:1040B800A9A7A5A3A1A0A9A7A5A3A1A0A9A7A5A3AE
:1040C800A1A0A9A7A5A3A1A0A9A7A5A3A1A0A9A7A5
:1040D800A5A3A1A0A9A7A5A3A1A0A0A0A0A0A0A0B6
:1040E800A0A0A0A0A0A0A0A0A0A0A0A0A0A0A0A0C8
:1040F800A0A0A0A0A0A0A0A0A0A0A0A0A0A0A0A0B8
:10410800A0A0A0A2A4A6A9A0A2A4A6A9A0A2A4A671
:10411800A9A0A2A4A6A9A0A2A4A6A9A0A2A4A6A94F
:10412800A0A2A4A6A9A0A2A4A6A9373737373737D3
:104138003636363636363535353535353434343425
:10414800343433333333333332323232323231313F
:10415800313131313030303030303131313131314D
:104168003232323232323333333333333434343419
:1041780034343535353535353636363636373737DE
:104188003737303030303030303030303030303019
:104198003030303030303030303030303030303017
:1041A800303030303030303030302927252321204E
:1041B80029272523212029272523212029272523AD
:1041C80021202927252321202927252321202927A4
:1041D800252321202927252321202021232527299C
:1041E800202123252729202123252729202123258C
:1041F800272920212325272920232527292023256E
:104208002729202020202020202020202020202096
:104218002020202020202020202020202020202096
:1042280020202020202020202020C2AFE51B541F62
:10423800C313F519E492E7F583758200123AEFE5A6
:10424800B1540FF5B1E5B14410F5B1908000E49395
:10425800F8C083E51B20E006E583547FF583E81268
:104268003B4CD083A375840075D84075DD42E58347
:10427800F5ECE583458270D6D2AF22E51DB4000483
:1042880091B5800CB4010491EE8005B4023BB127CE
:10429800752E00752F8074B078A8F2747878A9F21A
:1042A800740178AAF2751F03D246758401D2992049
:1042B80046FD758400D29CD2AC75840F30A6FD20D3
:1042C800A6FD758400C29CC2AC2202436FE51DB4F2
:1042D80000F891B5E51C20E14A908000C083E51BF9
:1042E800C313F5194006E583547FF583E51C30E0D8
:1042F80006E5194440F519C2AF919ED2AFB160D01E
:1043080083A3E583C0E075840075D84075DD42F469
:10431800F5ECD0E0458270C478A0E51BF278A3E5FF
:104328001CF222908000C083E51B541FC313F519AB
:104338004006E583547FF583C2AF91A6D2AFB16042
:10434800D083A3E583C0E075840075D84075DD424D
:10435800F4F5ECD0E0458270CD78A0E51BF278A3A7
:10436800E51CF222024407B401FA91EEE51C20E1B3
:104378004A908000C083E51BC313F5194006E58306
:10438800547FF583E51C30E006E5194440F519C271
:10439800AF919ED2AFB192D083A3E583C0E075847C
:1043A8000075D84075DE42F4F5EED0E0458270C461
:1043B80078A1E51BF278A4E51CF222908000C08366
:1043C800E51B541FC313F5194006E583547FF58395
:1043D800C2AF91A6D2AFB192D083A3E583C0E075F6
:0D43E800840075D84075DE42F4F5EED0E09B
:1043F500458270CD78A1E51BF278A4E51CF2220276
:10440500449DB402FAB127E51C20E14B908000C021
:1044150083E51BC313F5194006E583547FF583E552
:104425001C30E006E5194440F519C2AF919ED2AFA4
:10443500B1C4D083A3E583C0E075840075D8407509
:10444500DF422440F4F5E2D0E0B4C0C378A2E51B16
:10445500F278A5E51CF222908000C083E51B541F6D
:10446500C313F5194006E583547FF583C2AF91A6C2
:10447500D2AFB1C4D083A3E583C0E075840075D8FD
:104485004075DF422440F4F5E2D0E0B4C0CC78A218
:10449500E51BF278A5E51CF222123957221239865E
:1044A50022123B1D22123B4C2275840F75A101225D
:1044B500758400C2AF758F0375B73175EF02E5B12D
:1044C500540FF5B1E5B14410F5B190800074FFF0DB
:1044D5000583058305830583E583B400F0758400B2
:1044E50075B730758F00D2AF22758400C2AF758F56
:1044F5000375B73175EF02E5B1540FF5B1E5B14478
:1045050020F5B190800074FFF005830583058305D0
:1045150083E583B400F075840075B730758F00D2DC
:10452500AF22758400C2AF758F0375B73175EF0281
:10453500E5B1540FF5B1E5B14430F5B190800074A3
:10454500FFF00583058305830583E583B4C0F07516
:10455500840075B730758F00D2AF22758400C2AF65
:10456500C083C0E0758F0175B731E5B1540FF5B162
:10457500E5B14410F5B1E5834480F583D0E0F075ED
:10458500840075B730758F00D083D2AF2275840053
:10459500C2AFC083C0E0758F0175B731E5B1540F67
:1045A500F5B1E5B14420F5B1E5834480F583D0E06C
:1045B500F075840075B730758F00D083D2AF227542
:1045C5008400C2AFC083C0E0758F0175B731E5B116
:1045D500540FF5B1E5B14430F5B1E5834480F58379
:1045E500D0E0F075840075B730758F00D083D2AFF9
:0145F50022A3
:10800000000102030405060708090A0B0C0D0E0FF8
:10801000101112131415161718191A1B1C1D1E1FE8
:10802000202122232425262728292A2B2C2D2E2FD8
:10803000303132333435363738393A3B3C3D3E3FC8
:10804000404142434445464748494A4B4C4D4E4FB8
:10805000505152535455565758595A5B5C5D5E5FA8
:10806000606162636465666768696A6B6C6D6E6F98
:10807000707172737475767778797A7B7C7D7E8087
:108080008182838485868788898A8B8C8D8E8F9068
:108090009192939495969798999A9B9C9D9E9FA058
:1080A000A1A2A3A4A5A6A7A8A9AAABACADAEAFB048
:1080B000B1B2B3B4B5B6B7B8B9BABBBCBDBEBFC038
:1080C000C1C2C3C4C5C6C7C8C9CACBCCCDCECFD028
:1080D000D1D2D3D4D5D6D7D8D9DADBDCDDDEDFE018
:1080E000E1E2E3E4E5E6E7E8E9EAEBECEDEEEFF008
:1080F000F1F2F3F4F5F6F7F8F9FAFBFCFDFEFFFFF9
:10810000FEFDFCFBFAF9F8F7F6F5F4F3F2F1F0EF07
:10811000EEEDECEBEAE9E8E7E6E5E4E3E2E1E0DFF7
:10812000DEDDDCDBDAD9D8D7D6D5D4D3D2D1D0CFE7
:10813000CECDCCCBCAC9C8C7C6C5C4C3C2C1C0BFD7
:10814000BEBDBCBBBAB9B8B7B6B5B4B3B2B1B0AFC7
:10815000AEADACABAAA9A8A7A6A5A4A3A2A1A09FB7
:108160009E9D9C9B9A999897969594939291908FA7
:108170008E8D8C8B8A898887868584838281807E98
:108180007D7C7B7A797877767574737271706F6E97
:108190006D6C6B6A696867666564636261605F5E87
:1081A0005D5C5B5A595857565554535251504F4E77
:1081B0004D4C4B4A494847464544434241403F3E67
:1081C0003D3C3B3A393837363534333231302F2E57
:1081D0002D2C2B2A292827262524232221201F1E47
:1081E0001D1C1B1A191817161514131211100F0E37
:1081F0000D0C0B0A09080706050403020100000024
:10820000808386898C8F9295989B9EA1A4A7AAAD06
:10821000B0B3B6B9BBBEC1C3C6C9CBCED0D2D5D719
:10822000D9DBDEE0E2E4E6E7E9EBECEEF0F1F2F4D4
:10823000F5F6F7F8F9FAFBFBFCFDFDFEFEFEFEFE8F
:10824000FEFEFEFEFEFEFDFDFCFBFBFAF9F8F7F676
:10825000F5F4F2F1F0EEECEBE9E7E6E4E2E0DEDB88
:10826000D9D7D5D2D0CECBC9C6C3C1BEBBB9B6B3A0
:10827000B0ADAAA7A4A19E9B9895928F8C89868366
:10828000807C797673706D6A6764615E5B58555265
:108290004F4C494644413E3C393634312F2D2A2833
:1082A0002624211F1D1B1918161413110F0E0D0B58
:1082B0000A0908070605040403020201010101017D
:1082C0000101010101010202030404050607080976
:1082D0000A0B0D0E0F1113141618191B1D1F212444
:1082E00026282A2D2F313436393C3E414446494C0C
:1082F0004F5255585B5E6164676A6D707376797C26
:10830000FEFEFEFEFEFEFEFEFEFEFEFEFEFEFEFE8D
:10831000FEFEFEFEFEFEFEFEFEFEFEFEFEFEFEFE7D
:10832000FEFEFEFEFEFEFEFEFEFEFEFEFEFEFEFE6D
:10833000FEFEFEFEFEFEFEFEFEFEFEFEFEFEFEFE5D
:10834000FEFEFEFEFEFEFEFEFEFEFEFEFEFEFEFE4D
:10835000FEFEFEFEFEFEFEFEFEFEFEFEFEFEFEFE3D
:10836000FEFEFEFEFEFEFEFEFEFEFEFEFEFEFEFE2D
:0D837000FEFEFEFEFEFEFEFEFEFEFEFEFE1A
:10837D00FEFE0101010101010101010101010101E6
:10838D0001010101010101010101010101010101D0
:10839D0001010101010101010101010101010101C0
:1083AD0001010101010101010101010101010101B0
:1083BD0001010101010101010101010101010101A0
:1083CD000101010101010101010101010101010190
:1083DD000101010101010101010101010101010180
:1083ED000101010101010101010101010101010170
:1083FD0001010180828486888A8C8E909294969851
:10840D009A9C9EA0A2A4A6A8AAACAEB0B2B4B6B8CF
:10841D00BABCBEBFC1C3C5C7C9CBCDCFD1D3D5D7CC
:10842D00D9DBDDDFE1E3E5E7E9EBEDEFF1F3F5F7BF
:10843D00F9FBFDFBF9F7F5F3F1EFEDEBE9E7E5E31B
:10844D00E1DFDDDBD9D7D5D3D1CFCDCBC9C7C5C3FF
:10845D00C1BFBEBCBAB8B6B4B2B0AEACAAA8A6A4E1
:10846D00A2A09E9C9A98969492908E8C8A888684CF
:10847D0082807F7D7B79777573716F6D6B696765B1
:10848D0063615F5D5B59575553514F4D4B4947459F
:10849D004341403E3C3A38363432302E2C2A282681
:1084AD002422201E1C1A18161412100E0C0A08066F
:1084BD00040302030507090B0D0F11131517191BE3
:1084CD001D1F21232527292B2D2F31333537393BDF
:1084DD003D3F41434547494B4D4F51535557595BCF
:1084ED005D5F61636567696B6D6F71737577797BBF
:1084FD007D7F81F8F8F8F8F8F8F8F8F8F8F8F8F85A
:10850D00F8F8F8F8F8F8F8F8F8F8F8F8F8F8F8F8DE
:10851D00F8F8F8F8F8F8F8F8F8F8F8F8F8F8F8F8CE
:10852D00F8F8F8F8F8F8F8F8F8F8F8F8F8F8F8F8BE
:10853D00F8F8F8F8070707070707070707070707FA
:10854D0007070707070707070707070707070707AE
:10855D00070707070707070707070707070707079E
:10856D00070707070707070707070707070707078E
:10857D00070707070707070707070707070707077E
:10858D00070707070707070707070707070707076E
:10859D00070707070707070707070707070707075E
:1085AD00070707070707070707070707070707074E
:1085BD00070707070707070707070707070707073E
:1085CD00070707070707070707070707070707072E
:1085DD00070707070707070707070707070707071E
:1085ED00070707070707070707070707070707070E
:1085FD0007070773583D27180D09090A0B0C0D0EB7
:10860D000F101112131415161718191A1B1C1D1EF5
:10861D001F202122232425262728292A2B2C2D2EE5
:10862D002F303132333435363738393A3B3C3D3ED5
:10863D003F40414243444546474748494A4B4C4DCC
:10864D004E4F505152535455565758595A5B5C5DC5
:10865D005E5F606162636465666768696A6B6C6DB5
:10866D006E6F707172737475767778797A7B7C7DA5
:10867D007E7F80808182838485868788898A8B8CA2
:10868D008D8E8F909192939495969798999A9B9C95
:10869D009D9E9FA0A1A2A3A4A5A6A7A8A9AAABAC85
:1086AD00ADAEAFB0B1B2B3B4B5B6B7B8B8B9BABB79
:1086BD00BCBDBEBFC0C1C2C3C4C5C6C7C8C9CACB75
:1086CD00CCCDCECFD0D1D2D3D4D5D6D7D8D9DADB65
:1086DD00DCDDDEDFE0E1E2E3E4E5E6E7E8E9EAEB55
:0D86ED00ECEDEEEFF0F1F2F3F4F5F6F7F737
:1086FA00F3E8D9C3A88D838A929AA1A9B0B8BFC753
:10870A00CFD6DEE6EEEDECEBE9E8E7E6E5E4E2E11A
:10871A00E0DFDEDDDBDAD9D8D7D6D4D3D2D1D0CFD9
:10872A00CDCCCBCAC9C8C6C5C4C3C2C1BFBEBDBCF5
:10873A00BBBAB8B7B6B5B4B3B1B0AFAEADACAAA90F
:10874A00A8A7A6A6A4A3A2A1A09F9D9C9B9A99981C
:10875A009695949392918F8E8D8C8B8A8A8988872D
:10876A0086868584848383828282818181808080D7
:10877A0080808080808080808080808080807F7FF1
:10878A007F7F7E7E7E7D7D7C7B7B7A7A7978777629
:10879A007575747372706F6E6D6C6B6968676665F8
:1087AA00646261605F5E5E5C5B5A59585755545308
:1087BA005251504E4D4C4B4A49474645444342401C
:1087CA003F3E3D3C3B3938373635343231302F2E37
:1087DA002D2C2A2928272625232221201F1E1C1B4F
:1087EA001A191816151514131A2229313840484F28
:1087FA00565E666D757D80818282838484858687D4
:10880A008889898B8C8D8F919395989A9D9FA2A424
:10881A00A7A9ABAEB0B2B4B6B8BABCBEC0C2C3C5E3
:10882A00C7C8CACBCCCECFD0D1D2D3D4D4D5D6D642
:10883A00D7D7D8D8D8D8D8D8D8D8D8D7D7D6D6D5B9
:10884A00D4D4D3D2D1D0CFCECCCBCAC8C7C5C3C259
:10885A00C0BEBCBAB8B6B4B2B0AEABA9A7A4A29F08
:10886A009D9A989593918F8D8C8B89898887868517
:10887A008484838282818080807F7E7D7D7C7B7AF6
:10888A00797977767472706E6B696664615F5C5A27
:10889A00575553504E4C4A48464442403E3C3B3959
:1088AA003736343332302F2E2D2C2B2B2A292928D8
:1088BA00282727272626262626272727282829293C
:1088CA002A2B2B2C2D2E2F303233343637393B3C82
:1088DA003E40424446484A4C4E505355575A5C5FB4
:1088EA00616466696B6E707274767779797A7B7C6B
:1088FA007D7D7E7F80808898A8B8C9D9E9E7E4E2BF
:10890A00E0DEDBD9D7D4D2CFCDCBC9C6C4C1BFBC78
:10891A00BAB7B4B3B0ADABA8A5A29F9D9A999694E5
:10892A00918F8D8B898786858381807E7C7A797702
:10893A00767473737272727373747677797A7C7ED3
:10894A00808183858687898B8D8F919496999A9D4C
:10895A009FA2A5A8ABADB0B3B4B7BABCBFC1C4C6D9
:10896A00C9CBCDCFD2D4D7D9DBDEE0E2E4E7E9D96F
:10897A00C9B8A8988878675747362716181B1D1F45
:10898A00212426292B2D30323436393B3E404345AB
:10899A00484B4C4F5254575A5D5F626567696C6E1B
:1089AA0071737577797B7C7E8082838587898A8BD0
:1089BA008D8E8F90919191908F8E8D8B8A898785DC
:1089CA008382807E7C7B79777573716E6C6967654B
:1089DA00625F5D5A5754524F4C4B484543403E3BA9
:1089EA0039363432302D2B292624211F1D1B181607
:1089FA0027364757677883888D93979CA1A6AAAF95
:108A0A00B4B9BDC1C5C9CCD0D4D8DBDEE2E5E7EA4A
:108A1A00ECEFF1F3F5F7F8F9FAFBFBFCFCFDFDFCD2
:108A2A00FCFCFBFAF9F8F6F5F4F3F1EFEDEBE8E606
:108A3A00E3E1DEDBD8D6D3D0CDCAC6C3C0BEBAB84E
:108A4A00B5B2AEABA8A6A3A09E9C999794928F8D1F
:108A5A008A8987858483817F7E7D7B7B7A7A797810
:0D8A6A0078787777777777777778787879ED
:108A77007A7A7A7B7C7C7D7E7F7F8081828283830A
:108A87008484858586868686878686868685858488
:108A970084838282817F7E7C7B7978767573706E22
:108AA7006C696664625F5D5A5855524F4C4845423F
:108AB700403D3A3734302D2A2825221F1D1A171515
:108AC70013100E0C0B09080706040302020101002C
:108AD700010101020303040507080A0C0F1113160D
:108AE700191B1F2226292D3135383C4045494E5345
:108AF700585C61666B6F73787F868E969FA7AEB65C
:108B0700BDC3CAD0D6DBE0E5EAEDF1F4F7F9FAFC2C
:108B1700FDFDFCFCFBF9F7F5F3EFECE8E5E0DCD74E
:108B2700D3CEC9C4BFB9B4AFABA6A19D9995918E59
:108B37008B88858382807F7F7F7F7F808283858804
:108B47008B8E9195999DA1A6ABAFB4B9BFC4C9CE81
:108B5700D3D7DCE0E5E8ECF0F3F5F7F9FBFCFCFD37
:108B6700FDFCFAF9F7F4F1EDEAE5E0DBD6D0CAC38C
:108B7700BDB5AEA69F978F877F766E665F574F48C6
:108B8700413A332D28221D1814100C09070403013C
:108B970001000101030406080B0E1115191D2126FA
:108BA7002B2F34393F44494E53575C6065686C6FCF
:108BB7007375787A7C7D7E7E7F7E7E7D7C7A787504
:108BC700736F6C6865605C57534E49443F39342F67
:108BD7002B26211D1915110D0B0806040301010091
:108BE7000101030407090C1014181D22282D333A1C
:108BF70041484F575F666E767F87909AA3ABB3BBAA
:108C0700C3CAD1D7DEE3E8EDF1F4F7F9FBFCFCFDCD
:108C1700FDFCFBF9F8F5F3F0EEEBE8E5E2DEDBD877
:108C2700D5D2D0CDCCCAC8C7C6C5C5C5C6C6C7C8A4
:108C3700CACBCDCFD2D4D6D8DBDDDFE1E3E4E5E79D
:108C4700E8E8E8E8E8E6E5E3E1DEDBD7D4CFCBC642
:108C5700C1BBB6B0ABA49E98928B86807B75706BB8
:108C670067635F5C5A575654545354545657595C6C
:108C77005F6265696D71757A7F83888C9194989B23
:108C87009FA1A4A6A8A9A9AAAAA9A7A6A4A19E9A92
:108C970097928D88837D77726C655F59534D4742F4
:108CA7003D37322E2A26221F1D1A1817161515159D
:108CB700161618191B1C1E20232527292C2E303287
:108CC70034353637383838383837353332302D2B56
:108CD7002926221F1C181512100D0A080604020166
:108CE70001010102030305070A0E131920262D337C
:108CF7003B424A525B636B747F8A96A1ADB7C1CA88
:108D0700D2D8DDE2E5E6E7E6E5E2DED9D5CFCAC4AB
:108D1700BFB9B3AEAAA5A29F9E9C9C9D9FA1A3A7E6
:108D2700ABAFB3B7BCBFC3C6C9CACBCCCCCAC8C527
:108D3700C2BDB7B1ABA49D968F88817B76716E6BF0
:108D47006A696A6B6F73787E868D969FA9B2BCC578
:108D5700CFD7E0E7EEF3F7FAFDFDFDFBF9F4EFE916
:108D6700E3DBD3CBC3BAB2A9A29A938D88837F7C66
:108D77007A787878797A7B7D7F8082838585858507
:108D870084817E7A76706A635C544B433B322A2235
:108D97001B140E09050200000103060A10161D2602
:108DA7002F38414B555E6770787F858A8F929394F1
:108DB7009492908C88827C756F676059534C4640BB
:108DC7003C3835333231323335373A3E42464A4EF4
:108DD70053565A5C5F606160605E5B58544F4A440B
:0D8DE7003F39332E29241F1B1917161719A9
:108DF4001B20252C333C46515C68737F8B98A6B3AB
:108E0400BEC9D2DAE0E6EAEDEDEDEBE8E3DED8D276
:108E1400CAC3BBB4ACA6A09B9692908F8F90939735
:108E24009BA0A7AEB5BDC5CED6DEE5ECF1F6FAFD46
:108E3400FEFEFEFCF8F4EFEAE3DCD5CEC6BEB6B027
:108E4400A9A49F9C99979798999C9FA4A9AEB4BBF9
:108E5400C1C7CDD3D7DBDEE1E2E1E0DEDAD4CEC7B1
:108E6400BEB5ABA1968B80766B6259524B45413FA0
:108E74003D3D3F42464C535B636C757F88919AA39A
:108E8400AAB1B7BCBFC0C0BFBCB8B2ACA49B9288E7
:108E94007D72675D52483F372F2923201D1C1B1DFF
:108EA4001F22262B30363C43494F545A5E61646678
:108EB400666664625E59544E473F373028211A145F
:108EC4000E0905020000000103070C12181F2730C9
:108ED40038404850565D62676A6D6E6F6D6B6763AC
:108EE4005D57514A423A332C251F1A16121010119D
:108EF40013171D242C353F4B5763717F7882A2C70B
:108F0400DEE3E1DED9D3D1D5DADBDBDDDEDCDBDEAB
:108F1400E3E7E9EBEBE7E0DAD6D2CECBC9C5C1BDD6
:108F2400BBB8B6B6B8B8B4AEAAA6A29F9F9F9C9889
:108F340095959593908E8E8F8E8B86827F7D7C7D8A
:108F44007D797574767674737576747371717072D5
:108F5400757778797A7D7D7D7D8083858685838329
:108F640084848384888B8A88898B8B89898A888482
:108F740084888A8783848888848181817F7D7D7DBC
:108F84007A76767A7B7774767A7A76747575737373
:108F940075767473767A7B7A7A7B7B7978797B7E43
:108FA4008182818184868686898D8E8D8D8C8A8846
:108FB400898B8A88888A8985818182817F7C78737C
:108FC400706F70706E6B69696966625F5F5F5C5831
:108FD40054504A464648484643413E393533302C7E
:108FE40028241E17131315171B20232220212323A3
:108FF40024292D2B24201E1B1F375E7C7B8199BACC
:10900400D5E3EBEFEEE6DCD1C5B9B0ACA9A7A7ACCC
:10901400B2B5B5B2AEA79F958A7E746E6A67676B68
:1090240072777A7E838688898B8C8E92979CA0A592
:10903400ACB1B1AFADAAA59F989088817B75706DD6
:109044006C6B686563615F5D5D5D5D5F62676C73DA
:10905400797E818487898888898A89898A8A8989A5
:109064008A8985807D787067615D58545252535463
:10907400575B5E6064696D707375777A7F848789E6
:109084008B8E91959A9EA1A3A7AAACACACAAA6A1DB
:109094009D978E86817E7A757475757474757574F2
:1090A40074767675767A7E80848B92979B9FA1A145
:1090B400A1A1A09D9B99969391918F89837D776EB1
:1090C400665F5954514F4D4D51595F62666C7172D0
:1090D400727578787A8085868B94999692918C7F34
:1090E400726A62564E4D4D4849535B555054534332
:1090F400332F291609111C191E46747B6E82B2C3C4
:10910400AEAAC5CCA48394B4AF958E948B83929E5F
:1091140084677DB2B7825D719188685F7182827F56
:10912400858E8C7C7081A9BAA1848CA39E80768361
:1091340087869BB5A87F7EA9B89583A4B47E475F34
:109144009A94553A5D7D7D7E8C835F54707D5E4537
:109154005C7F795A587C9B9A8C8890958D7B72772A
:0D9164007F818897987B5956655F47486763
:109171007B716A7B8D8C87877B626285A299847FF4
:109181007A655C799C9C837777727183948D8397E0
:10919100B6B79F99A8A5836667767D7F878C827114
:1091A100696E7672646382A6A4857FA2BAA0818E5D
:1091B100AA9F7B72808180A1C4A96A649FB78049FC
:1091C1005A7B694655807F56496478767B887E60F4
:1091D1005B737A5D44567D8E837270797F7C7C8C63
:1091E1009F96766D8EA27B474D829779606C7B72DC
:1091F1006A70694E4A6B7B58323A544F3B4C7B94B0
:109201008463453857A5E8E0A78BA4BAA684777292
:1092110067667D9494867F7F7D8192A3A2907D690C
:1092210057525F737F868F97999BA6B6BEBAAFA23E
:10923100948C909AA2A49B8461402D2A3550769BF0
:10924100B1B8B3A592868CA0B6C3C5BAA182695E36
:10925100616D7F909A9B9A9CA0A5A9A6977D635466
:10926100535E7085959A96918E8D9097A0A39E9945
:109271009AA0A5A59E8966412C2B3D6090B5AF7F34
:109281004F496E9EC1D2D2BD98756059595E6466D0
:10929100605B5E676E70706E686469798EA0ABAB5F
:1092A1009B80675855585E636462646E7F909DA091
:1092B100957B5D45393A485E72776C5A4B454D65F1
:1092C10088ADC9D6D1BD9D7C63595C656E716B5EFD
:1092D1004E42414A576166696E75808E9EA9A89873
:1092E100806A5E5F6A7984847C736D707E919A93E3
:1092F10084715C4E56675B2B1248ABDAB5807E9762
:109301008850292E414B6191BECBC2BEBBA1745284
:1093110050647D929C958373758AA3B3B2A07F59E3
:109321003E3949627B8E999DA1AFC4D6DDD8C9B3C0
:109331009E9599A4B2BAA7744D6EC6F6CB8376A555
:10934100CED6D2C2987899D7CD6C2B5DB4B26130AC
:109351004B768289A3B8B2A8B4C7C5B5A3885F3CD0
:10936100374B67839DABA5958C8F99A5B3B8B2ADEB
:10937100AFB6BEC2B080566CBFFBDF9E99CCD17F29
:109381002D3265601F033F92A87E4E3D40484F51EC
:109391004C464C59656E72695953617B97B3C7C28C
:1093A1009F765B4939374A564C465B767C88B3CE0B
:1093B1009D4C4AA1D39231276585663C2C283059B2
:1093C100887B33083890B18A56444D5A6469604BA2
:1093D100352621283A4F5D62656F839CB5C4C0A5CF
:1093E1007F5D4C4C5B74898C7B68636D8099AFADFC
:1093F100895B44423B3141709CB0BED3D4AB7769A9
:1094010081948F8A96A2A19FA8B2B1AFB7C1C2BF02
:10941100C3CBCCCBCFD4D4D3D6DBDBD9DBDEDFDE01
:10942100DFE2E1DEDEE0E1DFDFE0E0DEDEE0E1DF42
:10943100DEDFDFDDDADADAD9D7D5D4D2D1D0CFCCBD
:10944100CAC9C8C6C4C3C2BFBDBCBCBAB8B6B6B52A
:10945100B4B3B3B3B2B1B0B0AFAEAEAFAFAEADAC0B
:10946100ACABAAA9A9A8A6A4A3A3A2A09F9E9D9BB9
:10947100999795939292918E8C8B8A878483827F20
:109481007C7B7A77747372706D6C6C6B69676563E2
:1094910061605F5E5C5B5B5A58565555545352523E
:1094A10051504F4F50504F4E4E4D4C4B4B4B4A48E5
:1094B100484846434242413E3C3B3A3837353331D6
:1094C100302E2C2B2B2926252525232120201F1E3C
:1094D1001E1F1F1F1F1F1E1E1E1F1F1F1E1E1E1FA2
:0D94E10020212223242527292B2C2E303377
:1094EE0036393C3E41454B4F5154595F63666A7164
