:030000000200B348
:0100030032CA
:03000B00020FD110
:0100130032BA
:03001B00020DBA19
:030023000239DCC3
:03002B000205C902
:01003300329A
:03003B000214E0CC
:01004300328A
:01004B003282
:01005300327A
:01005B003272
:01006300326A
:01006B003262
:03007300020A1C62
:01007B003252
:01008300324A
:01008B003242
:01009300323A
:01009B003232
:0300A300022A3FEF
:1000B30075FFDE75FFAD75817F75A200753500751F
:1000C3003400753300753B00753A0075390075418E
:1000D30000754000753F0075470075460075450083
:1000E300754D00754C00754B0075530075520075C6
:1000F3005100755900755800755700755F00755E9E
:1001030000755D00781F7400F2784A7400F27896E7
:100113007403F27814F278127400F2C238C23A7897
:10012300427464F278487464F2D262D26374FF78E2
:1001330089F278167418F2F56578187400F2F5668A
:1001430078157400F2F56978197400F27813740065
:10015300F278107400F278117400F278177400F2D8
:10016300C24D78277400F2781BF2C256785E740091
:10017300F278977405F27824F278227400F2C23987
:10018300C23B78437464F278497464F2D260D261FA
:1001930074FF7890F278267418F2F517782A7400B1
:1001A300F2F51878237400F278257400F2F56A7872
:1001B300287400F278207400F278217400F2782910
:1001C3007400F2C24E782BF2C257785F7400F27853
:1001D300567440F2C26C78547400F2C26A78557453
:1001E30000F2C26B782F7440F2C255782D7400F27E
:1001F300C258782E7400F2C259781A7401F2780347
:100203007401F2F505C24875070078097401F2F527
:100213000BC249750D00751A0378447401F2F56138
:100223007845742DF2F562784674FFF27847740CC2
:10023300F2F560781D7400F2C25C781E7400F2C29D
:100243005D784F7400F2783274FFF278337400F201
:1002530078307400F278317400F278387400F2C2A6
:100263005E78397400F2C25F78347401F2F5157860
:10027300357401F2F516783674FFF278377401F2AB
:10028300F5147802745FF2F50478047407F27805C4
:100293007401F2F50678067400F2780E7400F2F534
:1002A30009C25A7808745FF2F50A780A7407F2787B
:1002B3000B7401F2F50C780C7400F2780F7400F2F1
:1002C300F50FC25B78407400F278417400F27892C3
:1002D3007437F27893F2789AF274FF78ACF278ADCF
:1002E300F278AEF278AF784C7400F2C253784D7462
:1002F30000F2784E7401F2C254783A7400F2D26478
:10030300783BF2D265783CF2783DF2783EF2783F62
:10031300F278507400F27851F27852F27853F27511
:10032300200075220075230075210075700075711A
:10033300007572007573007525007526007524001D
:10034300751002751102751202751302D250C25153
:10035300C252C240C243C24AC268751E00C269C2C9
:100363006FC24F1216E3C295C296C297C245C23CF2
:10037300C23D757D00C266C267C26E751C02751BE5
:1003830000751D00C23FC23E74FF78A3F278A0F24D
:1003930078A4F278A1F278A5F278A2F212111412DD
:1003A30012391238111237EC1239D71239B2C24648
:1003B300751F0030600D740212115D7849E2123B23
:1003C30034C26030610D740212115D7843E2123A57
:1003D300F5C26130620D740112115D7848E2123A80
:1003E300F5C26230630D740112115D7842E2123B73
:1003F30034C26330641E740412115D783AE2C0E0C3
:10040300123AB2740812115DD0E0123AB2C264809B
:10041300030204C53066FA740112115D7884E2C0E8
:0D042300E0F5F07840E2A4A9F07842E2F89C
:10043000747FC398B501005004F5F0800289F0E89C
:1004400025F0547F123B34D0E0F4F5F07840E2A47C
:10045000A9F07848E2F8747FC398B501005004F51C
:10046000F0800289F0E825F0547F123AF574021208
:10047000115D7884E2C0E0F5F07840E2A4A9F0785C
:1004800043E2F8747FC398B501005004F5F0800290
:1004900089F0E825F0547F123B34D0E0F4F5F07891
:1004A00040E2A4A9F07849E2F8747FC398B501004E
:1004B0005004F5F0800289F0E825F0547F123AF5F7
:1004C000800302056E3067FA740112115D7885E2CF
:1004D000C0E0F5F07841E2A4A9F07842E2F8747F38
:1004E000C398B501005004F5F0800289F0E825F0CA
:1004F000547F123B34D0E0F4F5F07841E2A4A9F047
:100500007848E2F8747FC398B501005004F5F08094
:100510000289F0E825F0547F123AF5740212115D59
:100520007885E2C0E0F5F07841E2A4A9F07843E2F2
:10053000F8747FC398B501005004F5F0800289F08B
:10054000E825F0547F123B34D0E0F4F5F07841E236
:10055000A4A9F07849E2F8747FC398B5010050046B
:10056000F5F0800289F0E825F0547F123AF5303C2E
:100570002D758401C29C123A80C2A9C2ABC2ADC221
:10058000E712123912113BD2471225FFC23CD2A901
:10059000D2ABD2ADD2E7123AA5758401D29C303DE0
:1005A000081211E812113BC23D303F0B123A801283
:1005B00040C2123AA5C23F306E05124070C26E3082
:1005C0003E05124028C23E61B6C084C0E0C0F0C003
:1005D000D0C082C083C000C001303B0EE5B1540FD3
:1005E000F5B1E5B14430F5B1801D30390EE5B154B7
:1005F0000FF5B1E5B14420F5B1800CE5B1540FF52C
:10060000B1E5B14410F5B120580820590520550234
:1006100080357898E2C313F5F07899E2C31325F09A
:10062000F5F0782FE225F0547F9034C8937584015B
:1006300075C80075840175C908F5CA75CBF575C80C
:1006400004C258C259C255757800757900784FE2D6
:10065000F5F07823E2F825F0F5F07894E225F0F54E
:10066000F07895E225F0788FF2200002E115908075
:10067000007897E22583F583E54B93306D02648023
:10068000C0E07890E2F5F0D0E0A4E570305C01F4D1
:10069000305D0490354893A478ACE2A4C0F0789D16
:1006A000E2F5F078B4E2A4D0E025F0C0E0788AE288
:1006B000F5F030500EE510305E01F4305F049035F7
:1006C0004893A4A8F0D0E0A4C0F0E8F4F5F078B422
:1006D000E2A4E5F0D0F025F0F22578F578E435795C
:1006E000F579788FE22574C2E7C0E090177F93F523
:1006F00048D0E0C0E09017FF93F549D0E090187F14
:1007000093F54AE54D254AF54DE54C3549F54CE55F
:100710004B3548F54B200102E1C19080007897E20B
:100720002583F583E55193306D026480C0E07890B5
:10073000E2F5F0D0E0A4E571305C01F4305D0490A6
:10074000354893A478ADE2A4C0F0789DE2F5F07846
:10075000B5E2A4D0E025F0C0E0788AE2F5F03050B0
:100760000EE511305E01F4305F0490354893A4A883
:10077000F0D0E0A4C0F0E8F4F5F078B5E2A4E5F03C
:10078000D0F025F0F22578F578E43579F579788F91
:10079000E22575C2E7C0E090177F93F54ED0E0C028
:0D07A000E09017FF93F54FD0E090187F9385
:1007AD00F550E5532550F553E552354FF552E551CA
:1007BD00354EF55120020302086E9080007897E2C5
:1007CD002583F583E55793306D026480C0E0789002
:1007DD00E2F5F0D0E0A4E572305C01F4305D0490F8
:1007ED00354893A478AEE2A4C0F0789DE2F5F07898
:1007FD00B6E2A4D0E025F0C0E0788AE2F5F0305002
:10080D000EE512305E01F4305F0490354893A4A8D4
:10081D00F0D0E0A4C0F0E8F4F5F078B6E2A4E5F08D
:10082D00D0F025F0F22578F578E43579F579788FE3
:10083D00E22576C2E7C0E090177F93F554D0E0C073
:10084D00E09017FF93F555D0E090187F93F556E59E
:10085D00592556F559E5583555F558E5573554F59B
:10086D0057200302211A9080007897E22583F583A3
:10087D00E55D93306D026480C0E07890E2F5F0D0D4
:10088D00E0A4E573305C01F4305D0490354893A429
:10089D0078AFE2A4C0F0789DE2F5F078B7E2A4D08D
:1008AD00E025F0C0E0788AE2F5F030500EE5133027
:1008BD005E01F4305F0490354893A4A8F0D0E0A415
:1008CD00C0F0E8F4F5F078B7E2A4E5F0D0F025F04B
:1008DD00F22578F578E43579F579788FE22577C2C8
:1008ED00E7C0E090177F93F55AD0E0C0E09017FF76
:1008FD0093F55BD0E090187F93F55CE55F255CF593
:10090D005FE55E355BF55EE55D355AF55D7819E2BF
:10091D006004E520604A785EE2600CE57EB5200259
:10092D00800585207E8039304D05304B488010D5AF
:10093D0065437816E2F565D5663B7818E2F566787D
:10094D0015E26031E569700530561F802215697812
:10095D0096E205E0C2E7303A02C2E6F2C24B8015DC
:10096D007816E2F5657818E2F5667815E2F569799D
:10097D0014E37996F37828E26004E520604A785F05
:10098D00E2600CE57EB52002800585207E80393041
:10099D004E05304C488010D517437826E2F517D513
:1009AD00183B782AE2F5187825E26031E56A700582
:1009BD0030571F8022156A7897E205E0C2E7303B79
:1009CD0002C2E6F2C24C80157826E2F517782AE2CB
:1009DD00F5187825E2F56A7924E37997F3C3E5787C
:1009ED0033F578E57933F579C3E57833F578E5793D
:1009FD0033F5797584008578D28579D3C2CFD0014E
:100A0D00D000D083D082D0D0D0F0D0E0D08432C00E
:100A1D0084C0E0C0F0C0D0C082C083C000C001302F
:100A2D003A0EE5B1540FF5B1E5B14430F5B1801D85
:100A3D0030380EE5B1540FF5B1E5B14420F5B18074
:100A4D000CE5B1540FF5B1E5B14410F5B1206A08CC
:100A5D00206B05206C02803578A6E2C313F5F07883
:100A6D00A7E2C31325F0F5F07856E225F0547F90F8
:100A7D0034C89375840075C80075840075C908F570
:100A8D00CA75CBF575C804C26AC26BC26C756300BA
:100A9D00756400784FE2F5F07813E2F825F0F5F083
:100AAD007880E225F0F5F07881E225F07888F2780B
:100ABD0032E2F5F07882E225F0788AF27833E2F5C9
:100ACD00F07883E225F0789DF2200002618290801B
:100ADD00007896E22583F583E53393306D026480CB
:100AED00C0E07889E2F5F0D0E0A4E570305C01F467
:100AFD00305D0490354893A478ACE2A4C0F0789DA5
:100B0D00E2F5F078B0E2A4D0E025F0C0E0788AE21A
:0D0B1D00F5F030500EE510305E01F4305F51
:100B2A000490354893A4A8F0D0E0A4C0F0E8F4F506
:100B3A00F078B0E2A4E5F0D0F025F0F22563F56391
:100B4A00E43564F5647888E22574C2E7C0E090175A
:100B5A007F93F530D0E0C0E09017FF93F531D0E0F5
:100B6A0090187F93F532E5352532F535E534353180
:100B7A00F534E5333530F533200102812E908000BB
:100B8A007896E22583F583E53993306D026480C057
:100B9A00E07889E2F5F0D0E0A4E571305C01F43048
:100BAA005D0490354893A478ADE2A4C0F0789DE244
:100BBA00F5F078B1E2A4D0E025F0C0E0788AE2F559
:100BCA00F030500EE511305E01F4305F0490354884
:100BDA0093A4A8F0D0E0A4C0F0E8F4F5F078B1E26C
:100BEA00A4E5F0D0F025F0F22563F563E43564F569
:100BFA00647888E22575C2E7C0E090177F93F536DE
:100C0A00D0E0C0E09017FF93F537D0E090187F93BB
:100C1A00F538E53B2538F53BE53A3537F53AE53918
:100C2A003536F53920020281DA9080007896E2257D
:100C3A0083F583E53F93306D026480C0E07889E2F2
:100C4A00F5F0D0E0A4E572305C01F4305D04903533
:100C5A004893A478AEE2A4C0F0789DE2F5F078B2A9
:100C6A00E2A4D0E025F0C0E0788AE2F5F030500E38
:100C7A00E512305E01F4305F0490354893A4A8F081
:100C8A00D0E0A4C0F0E8F4F5F078B2E2A4E5F0D040
:100C9A00F025F0F22563F563E43564F5647888E2BB
:100CAA002576C2E7C0E090177F93F53CD0E0C0E01C
:100CBA009017FF93F53DD0E090187F93F53EE541FC
:100CCA00253EF541E540353DF540E53F353CF53FEC
:100CDA00200302A1869080007896E22583F583E5B9
:100CEA004593306D026480C0E07889E2F5F0D0E087
:100CFA00A4E573305C01F4305D0490354893A47820
:100D0A00AFE2A4C0F0789DE2F5F078B3E2A4D0E0B7
:100D1A0025F0C0E0788AE2F5F030500EE513305E37
:100D2A0001F4305F0490354893A4A8F0D0E0A4C041
:100D3A00F0E8F4F5F078B3E2A4E5F0D0F025F0F2AB
:100D4A002563F563E43564F5647888E22577C2E7BC
:100D5A00C0E090177F93F542D0E0C0E09017FF9370
:100D6A00F543D0E090187F93F544E5472544F547CD
:100D7A00E5463543F546E5453542F545C3E5633372
:100D8A00F563E56433F564C3E56333F563E564331A
:100D9A00F5647584018563D28564D3C2CFD001D04E
:100DAA0000D083D082D0D0D0F0D0E0D08432E1BD60
:100DBA00C084C0E0C0F0C0D0C082C083C000C001FF
:100DCA00D51AEB751A037846E2F5F0D561597844DD
:100DDA00E2F5613010120570E570B4FF0BC210E540
:100DEA00F0B4FF028002D2183011120571E571B415
:100DFA00FF0BC211E5F0B4FF028002D219301212C1
:100E0A000572E572B4FF0BC212E5F0B4FF0280026C
:100E1A00D21A3013120573E573B4FF0BC213E5F04F
:100E2A00B4FF028002D21BD562357845E2F5623002
:100E3A0018091570E5F0B57002C218301909157154
:100E4A00E5F0B57102C219301A091572E5F0B572EA
:100E5A0002C21A301B091573E5F0B57302C21BD51D
:100E6A00602D7847E2F560300807D57004C208C2E1
:100E7A0000300907D57104C209C201300A07D572C8
:100E8A0004C20AC202300B07D57304C20BC2038024
:0D0E9A00007836E2F5F0D515597834E2F510
:100EA700153028120510E510B4FF0BC228E5F0B481
:100EB700FF028002D2303029120511E511B4FF0B71
:100EC700C229E5F0B4FF028002D231302A1205129E
:100ED700E512B4FF0BC22AE5F0B4FF028002D2325A
:100EE700302B120513E513B4FF0BC22BE5F0B4FF4B
:100EF700028002D233D516357835E2F5163030093F
:100F07001510E5F0B51002C2303031091511E5F0C2
:100F1700B51102C2313032091512E5F0B51202C21D
:100F2700323033091513E5F0B51302C2337837E2CF
:100F3700B401057524008034D514317837E2F514EF
:100F4700302008D51005751004C220302108D511AE
:100F570005751104C221302208D51205751204C285
:100F670022302308D51305751304C223E520601723
:100F770020481ED505117803E2F505D50709D248A3
:100F87006003750800800AC2487803E2B40102D200
:100F970048E520601720491ED50B117809E2F50BAB
:100FA700D50D09D2496003750E00800AC249780938
:100FB700E2B40102D249D001D000D083D082D0D090
:100FC700D0F0D0E0D08432021074C084C0E0C0F00A
:100FD700C0D0C082C083C000C001D504EA7902E353
:100FE700F504D506E27905E3F5069019FF7904E3E0
:100FF700B4080C7992E375F025A42435F3800D2508
:1010070083F583E50804F50893798DF3F8305106E5
:101017008510F0A4A8F0204802780088F07930E322
:10102700A4E5F07982F388F07910E3A4E5F07980FC
:10103700F388F07920E3A4E5F07994F388F0795008
:10104700E3A4E5F0799BF388F0792DE3A4E5F07943
:1010570098F36002D258E87984F388F07954E3A4CE
:10106700E5F079A6F36002D26A80022103D50AFB74
:101077007908E3F50AD50CF3790BE3F50C9019FF22
:10108700790AE3B4080C7993E375F025A42435F3C2
:10109700800D2583F583E50E04F50E93798EF3F81D
:1010A7003052068510F0A4A8F0204902780088F095
:1010B7007931E3A4E5F07983F388F07911E3A4E5C6
:1010C700F07981F388F07921E3A4E5F07995F38845
:1010D700F07951E3A4E5F0799CF388F0792EE3A445
:1010E700E5F07999F36002D259E87985F388F079C8
:1010F70055E3A4E5F079A7F36002D26BD001D000E5
:10110700D083D082D0D0D0F0D0E0D08432758400A4
:10111700002045FD00D2450075C044756F02756B10
:10112700A1756C00756DFFC2C4D2C5002045FD00D6
:10113700856E7D22758400002045FD00D24500752F
:10114700C044756F02756BA0756C00756DFF857D6A
:101157006EC2C4D2C522758400002045FD00D24569
:101167000075C044756F01756BE0F56CF56DF56E34
:10117700C2C4D2C522758400002045FD00D24500B7
:1011870075C044756F02756BA1857D6C886DC2C48F
:10119700D2C5002045FD00E56E227584000020457C
:1011A700FD00D2450075C044756F02756BA1756C63
:1011B70000756D00C2C4D2C5002045FD00E56E2252
:1011C700758400002045FD00D2450075C044756F49
:1011D70002756BA0756C00756D00F56EC2C4D2C543
:1011E70022785C758400002045FD00D2450075C05B
:1011F70044756F02756BA0857D6C886D901484E8CB
:1012070093F9E3F56EC2C4D2C5D8D875840000201F
:0D12170045FD00D2450075C044756F02759D
:101224006BA0857D6C886D901484E893F9E3F56E6A
:10123400C2C4D2C5227853758400002045FD00D273
:10124400450075C044756F02756BA1857D6C886D12
:10125400C2C4D2C5002045FD00901484E893F9E58A
:101264006EF3D8D3758400002045FD00D245007587
:10127400C044756F02756BA1857D6C886DC2C4D244
:10128400C5002045FD00901484E893F9E56EF378D9
:1012940014E27896F27812E2A2E09238A2E1923A4D
:1012A4007816E2F5657818E2F5667815E2F569785E
:1012B40017E2A2E0924D781BE2A2E0925674FF7806
:1012C40089F27824E27897F27822E2A2E09239A2B5
:1012D400E1923B7826E2F517782AE2F5187825E2C0
:1012E400F56A7829E2A2E0924E782BE2A2E09257C6
:1012F40074FF7890F2781DE2A2E0925C781EE2A27C
:10130400E0925D7838E2A2E0925E7839E2A2E0925F
:101314005F7844E2F5617845E2F5627847E2F5608A
:101324007834E2F5157835E2F5167837E2F5147875
:101334004FE2A2E09254784CE2A2E09253780EE29B
:10134400F509780FE2F50F7807E3A2E0925A780DD9
:10135400E3A2E0925B7802E2F5047805E2F5067810
:1013640008E2F50A780BE2F50C7803E2F505780952
:10137400E2F50B7840E26004D2668002C2667841EE
:10138400E26004D2678002C267D260D261D262D2C4
:1013940063D264D26CD255784AE2A2E6926D785751
:1013A400317CF978A0E2B501397854317CF978A31D
:1013B400E2B5012E7858317CF978A1E2B5013A788A
:1013C40055317CF978A4E2B5012F7859317CF9784C
:1013D400A2E2B5013B7856317CF978A5E2B501303B
:1013E4008043E978A0F2F51B7854317C78A3F2F5B8
:1013F4001C751D001240C280BBE978A1F2F51B7870
:1014040055317C78A4F2F51C751D011240C280BAD6
:10141400E978A2F2F51B7856317C78A5F2F51C75B3
:101424001D021240C2785A758400002045FD00D286
:10143400450075C044756F02756BA1857D6C886D20
:10144400C2C4D2C5002045FD00901484E893F9E598
:101454006EF3785B758400002045FD00D24500756D
:10146400C044756F02756BA1857D6C886DC2C4D252
:10147400C5002045FD00901484E893F9E56EF3223D
:1014840002030405060708090A0B0C0D0E0F1011C0
:1014940012131415161718191A1C1D1E20212223A5
:1014A4002425262728292A2C38392F2D2E3031326D
:1014B4003334353637404142434445464748494A28
:1014C4004B4C4D4E4F3A3B3C3D3E3F505152531BCB
:1014D4002B545556A3A4A5A0A1A25E5FC084C0E06E
:1014E400C0F0C0D0C082C083C000C001758400E5D4
:0714F400C1547F9014FB734B
:0614FB00D2C4C245A18D20
:0215030080570F
:07150B00856BC2C2C5807BA5
:05151300856CC280752B
:06151B00D2C4D2C5806CB1
:02152300804105
:06152B00D2C4D2C5805CB1
:06153300D2C4D2C58054B1
:04153B00C2C2804E5A
:06154300C2C4D2C58044C1
:06154B00D2C4C245803C41
:1015530085C26ED2C4C2458031E56B54FEF5C2C26A
:10156300C58027E56FB40207856DC2156F801BE543
:101573006FB40112E56B30E006C2C4D2C5800B859F
:101583006EC2156F8004D2C4C245C2C3D001D0005D
:10159300D083D082D0D0D0F0D0E0D0843275840014
:1015A300758850758400758922758C00758D4F750B
:1015B300840075C80475840075C90875CA9E75CB07
:1015C300F575840175C80475C90875CA9E75CBF590
:1015D30075840275C80075C90875CAEF75CBFF75A8
:1015E300C80475840075D90975D80075F9DA75FAD8
:1015F300E02275840075984075910F758401759884
:10160300502275840075D49875840175D4887584C7
:101613000043D1032275840F75A43575A5FD75A606
:10162300BF75A77F75B08075E10775E344227584A4
:101633000F758C67781EE4D5E0FDD8FAE58C30E7AA
:10164300FB75890453A1DF75840075B7B075840FEA
:1016530043A120438901758D01758F01758E06E4C1
:10166300D5E0FD438902E58930E4FB759722538A6F
:101673007F2275A20075A3032275840075C00475CB
:10168300CF6543C040C24522758400759A4375F8FF
:101693000D759D012275A8AA75B83075E60375E727
:1016A3004175F7412275A8B275B83075E60B75E739
:1016B3004175F7412275840075D84075DA4275DBB0
:1016C3004275DC4275DD4275DE4275DF4275FCFF13
:1016D30075FEFF75EAFF75ECFF75EEFF75E2FF22FD
:1016E300124249D18BB1A0B1F5D105D118D295D20F
:1016F30096D297D131D175D17CD19822F4F4F4F4F8
:10170300F4F5F5F5F5F5F6F6F6F6F6F7F7F7F7F778
:10171300F8F8F8F8F8F9F9F9F9F9FAFAFAFAFAFB34
:10172300FBFBFBFBFCFCFCFCFCFDFDFDFDFDFEFEF1
:10173300FEFEFEFFFFFFFFFF0000000000000000B1
:101743000101010101020202020203030303030474
:101753000404040405050505050606060606070731
:10176300070707080808080809090909090A0A0AEE
:101773000A0A0B0B0B0B0B0C0C0C0C0C00000000DF
:101783000000000000000000000000000000000056
:101793000000000000000000000000000000000046
:1017A3000000000000000000000000000000000036
:1017B3000000000101010101010101010101010218
:1017C30002020202020203030303030404040405E6
:1017D30005050606060707080809090A0A0B0C0C83
:1017E3000D0E0F1011121314151618191B1C1E20A1
:1017F300222426282A2D303336393C40000B0C0C8A
:101803000D0E0F1011121314151618191B1C1E2080
:10181300222426282A2D303336393C4044484C5163
:10182300555B60666C727980889099A2ABB6C0CC28
:10183300D8E5F30110213244576C8198B1CAE6030D
:1018430021426488AFD803316295CC064384C91121
:101853005FB00763C42B980C86089223BE610FC642
:10186300895731180D1124477CC31E8D12AE623186
:101873001B22488FF9873C1A245CC563006210C79A
:101883008A5832190E1225487DC41F8E13AF633256
:101893001C234990FA883D1B255DC6643846922077
:1018A300F30F79364ABA8CC76F8C243FE51EF26B6F
:1018B3009373188DDD17477EC93BE3D525E63019B1
:0D18C300BA2D8EFB9275C5AA49CC5F31731A
:1018D000591CF524E98A539197BD61E5B238EA476E
:1018E000D114A6212D7AC2CA646FD48DA1284B428F
:1018F0005AF38393C8DDA71941509583B3E605F4E5
:10190000F4F4F4F4F5F5F5F5F5F6F6F6F6F6F6F783
:10191000F7F7F7F8F8F8F8F8F9F9F9F9F9FAFAFA3F
:10192000FAFAFBFBFBFBFBFCFCFCFCFCFDFDFDFDFC
:10193000FDFEFEFEFEFEFFFFFFFFFF0000000000B9
:10194000000000010101010102020202020303037F
:10195000030304040404040505050505060606063C
:1019600006070707070708080808080909090909F9
:101970000A0A0A0A0A0B0B0B0B0B0C0C0C0C0CE8DA
:10198000E8E8E9E9EAEAEAEBEBECECECEDEDEEEEA7
:10199000EEEFEFF0F0F0F1F1F2F2F2F3F3F4F4F431
:1019A000F5F5F6F6F6F7F7F8F8F8F9F9FAFAFAFBBA
:1019B000FBFCFCFCFDFDFEFEFEFFFF000000000046
:1019C00000000001010202020303040404050506ED
:1019D0000606070708080809090A0A0A0B0B0C0C77
:1019E0000C0D0D0E0E0E0F0F101010111112121201
:1019F0001313141414151516161617171818188023
:101A000080808080808081818182828384858686B7
:101A100087898A8B8C8E8F9192949697999B9D9FA4
:101A2000A1A3A5A8AAACAFB1B4B6B9BCBEC1C4C687
:101A3000C9CCCFD2D5D8DBDEE1E4E7EAEDF0F3F7AD
:101A4000FAFDFDFAF7F3F0EDEAE7E4E1DEDBD8D5E5
:101A5000D2CFCCC9C6C4C1BEBCB9B6B4B1AFACAAB2
:101A6000A8A5A3A19F9D9B9997969492918F8E8CE8
:101A70008B8A898786868584838282818181808022
:101A800080808080807F7F7F7E7E7D7C7B7A7A797C
:101A90007776757472716F6E6C6A69676563615F82
:101AA0005D5B585654514F4C4A4744423F3C3A378D
:101AB00034312E2B2825221F1C191613100D090650
:101AC0000300000306090D101316191C1F222528F8
:101AD0002B2E3134373A3C3F4244474A4C4F515405
:101AE00056585B5D5F61636567696A6C6E6F7172A2
:101AF00074757677797A7A7B7C7D7E7E7F7F7F8036
:101B00008080808080807F7F7F7E7E7D7C7B7A7AF4
:101B1000797776757472716F6E6C6A6967656361E7
:101B20005F5D5B585654514F4C4A4744423F3C3AE4
:101B30003734312E2B2825221F1C191613100D099E
:101B40000603000306090D101316191C1F22252871
:101B50002B2E3134373A3C3F4244474A4C4F515484
:101B600056585B5D5F61636567696A6C6E6F717221
:101B700074757677797A7A7B7C7D7E7E7F7F7F80B5
:101B80008080808080808181818282838485868636
:101B900087898A8B8C8E8F9192949697999B9D9F23
:101BA000A1A3A5A8AAACAFB1B4B6B9BCBEC1C4C606
:101BB000C9CCCFD2D5D8DBDEE1E4E7EAEDF0F3F72C
:101BC000FAFDFFFDFAF7F3F0EDEAE7E4E1DEDBD83A
:101BD000D5D2CFCCC9C6C4C1BEBCB9B6B4B1AFAC06
:101BE000AAA8A5A3A19F9D9B9997969492918F8E49
:101BF0008C8B8A8987868685848382828181810015
:101C000000000000000000000000000000000000D4
:101C100000000000000000000000000000000000C4
:101C200000000000000000000000000000000000B4
:101C300000000000000000000000000000000000A4
:0D1C40000000000000000000000000000097
:101C4D000000000000000000000000000000000087
:101C5D000000000000000000000000000000000077
:101C6D000000000000000000000000000000000067
:101C7D000000FFFFFFFFFFFFFFFFFFFFFFFFFFFF65
:101C8D00FFFFFFFFFFFFFFFFFFFFFFFFFFFFFFFF57
:101C9D00FFFFFFFFFFFFFFFFFFFFFFFFFFFFFFFF47
:101CAD00FFFFFFFFFFFFFFFFFFFFFFFFFFFFFFFF37
:101CBD00FFFFFFFFFFFFFFFFFFFFFFFFFFFFFFFF27
:101CCD00FFFFFFFFFFFFFFFFFFFFFFFFFFFFFFFF17
:101CDD00FFFFFFFFFFFFFFFFFFFFFFFFFFFFFFFF07
:101CED00FFFFFFFFFFFFFFFFFFFFFFFFFFFFFFFFF7
:101CFD00FFFFFFFFFFFFFFFFFFFFFFFFFFFFFFFFE7
:101D0D00FFFFFFFFFFFFFFFFFFFFFFFFFFFFFFFFD6
:101D1D00FFFFFFFFFFFFFFFFFFFFFFFFFFFFFFFFC6
:101D2D00FFFFFFFFFFFFFFFFFFFFFFFFFFFFFFFFB6
:101D3D00FFFFFFFFFFFFFFFFFFFFFFFFFFFFFFFFA6
:101D4D00FFFFFFFFFFFFFFFFFFFFFFFFFFFFFFFF96
:101D5D00FFFFFFFFFFFFFFFFFFFFFFFFFFFFFFFF86
:101D6D00FFFFFFFFFFFFFFFFFFFFFFFFFFFFFFFF76
:101D7D00FFFF000000000000000000000000000058
:101D8D000000000000000000000000000000000046
:101D9D000000000000000000000000000000000036
:101DAD000000000000000000000000000000000026
:101DBD000000000000000000000000000000000016
:101DCD000000000000000000000000000000000006
:101DDD0000000000000000000000000000000000F6
:101DED0000000000000000000000000000000000E6
:101DFD0000007F7D7B79777573716F6D6B6967659A
:101E0D0063615F5D5B59575553514F4D4B49474585
:101E1D0043413F3D3B39373533312F2D2B29272575
:101E2D0023211F1D1B19171513110F0D0B09070565
:101E3D00030100020406080A0C0E10121416181ADB
:101E4D001C1E20222426282A2C2E30323436383AD5
:101E5D003C3E40424446484A4C4E50525456585AC5
:101E6D005C5E60626466686A6C6E70727476787AB5
:101E7D007C7E80828486888A8C8E90929496989AA5
:101E8D009C9EA0A2A4A6A8AAACAEB0B2B4B6B8BA95
:101E9D00BCBEC0C2C4C6C8CACCCED0D2D4D6D8DA85
:101EAD00DCDEE0E2E4E6E8EAECEEF0F2F4F6F8FA75
:101EBD00FCFEFFFDFBF9F7F5F3F1EFEDEBE9E7E5DF
:101ECD00E3E1DFDDDBD9D7D5D3D1CFCDCBC9C7C5C5
:101EDD00C3C1BFBDBBB9B7B5B3B1AFADABA9A7A5B5
:101EED00A3A19F9D9B99979593918F8D8B898785A5
:101EFD00838180828486888A8C8E90929496989A1B
:101F0D009C9EA0A2A4A6A8AAACAEB0B2B4B6B8BA14
:101F1D00BCBEC0C2C4C6C8CACCCED0D2D4D6D8DA04
:101F2D00DCDEE0E2E4E6E8EAECEEF0F2F4F6F8FAF4
:101F3D00FCFEFEFCFAF8F6F4F2F0EEECEAE8E6E46C
:101F4D00E2E0DEDCDAD8D6D4D2D0CECCCAC8C6C454
:101F5D00C2C0BEBCBAB8B6B4B2B0AEACAAA8A6A444
:101F6D00A2A09E9C9A98969492908E8C8A88868434
:101F7D0082807E7C7A78767472706E6C6A68666424
:101F8D0062605E5C5A58565452504E4C4A48464414
:101F9D0042403E3C3A38363432302E2C2A28262404
:101FAD0022201E1C1A18161412100E0C0A080604F4
:0D1FBD00020000020406080A0C0E101214A7
:101FCA0016181A1C1E20222426282A2C2E303234B7
:101FDA0036383A3C3E40424446484A4C4E505254A7
:101FEA0056585A5C5E60626466686A6C6E70727497
:101FFA0076787A7C7EFFFEFDFCFBFAF9F8F7F6F5B7
:10200A00F4F3F2F1F0EFEEEDECEBEAE9E8E7E6E5FE
:10201A00E4E3E2E1E0DFDEDDDCDBDAD9D8D7D6D5EE
:10202A00D4D3D2D1D0CFCECDCCCBCAC9C8C7C6C5DE
:10203A00C4C3C2C1C0BFBEBDBCBBBAB9B8B7B6B5CE
:10204A00B4B3B2B1B0AFAEADACABAAA9A8A7A6A5BE
:10205A00A4A3A2A1A09F9E9D9C9B9A9998979695AE
:10206A0094939291908F8E8D8C8B8A89888786859E
:10207A0084838281807F7E7D7C7B7A79787776758E
:10208A0074737271706F6E6D6C6B6A69686766657E
:10209A0064636261605F5E5D5C5B5A59585756556E
:1020AA0054535251504F4E4D4C4B4A49484746455E
:1020BA0044434241403F3E3D3C3B3A39383736354E
:1020CA0034333231302F2E2D2C2B2A29282726253E
:1020DA0024232221201F1E1D1C1B1A19181716152E
:1020EA0014131211100F0E0D0C0B0A09080706051E
:1020FA000403020100000102030405060708090A95
:10210A000B0C0D0E0F101112131415161718191A9D
:10211A001B1C1D1E1F202122232425262728292A8D
:10212A002B2C2D2E2F303132333435363738393A7D
:10213A003B3C3D3E3F404142434445464748494A6D
:10214A004B4C4D4E4F505152535455565758595A5D
:10215A005B5C5D5E5F606162636465666768696A4D
:10216A006B6C6D6E6F707172737475767778797A3D
:10217A007B7C7D7E7F808182838485868788898A2D
:10218A008B8C8D8E8F909192939495969798999A1D
:10219A009B9C9D9E9FA0A1A2A3A4A5A6A7A8A9AA0D
:1021AA00ABACADAEAFB0B1B2B3B4B5B6B7B8B9BAFD
:1021BA00BBBCBDBEBFC0C1C2C3C4C5C6C7C8C9CAED
:1021CA00CBCCCDCECFD0D1D2D3D4D5D6D7D8D9DADD
:1021DA00DBDCDDDEDFE0E1E2E3E4E5E6E7E8E9EACD
:1021EA00EBECEDEEEFF0F1F2F3F4F5F6F7F8F9FABD
:1021FA00FBFCFDFEFF00030507090B0D0F1113156C
:10220A0017191B1D1F21232527292B2D2F31333564
:10221A0037393B3D3F41434547494B4D4F51535554
:10222A0057595B5D5F61636567696B6D6F71737544
:10223A0077797B7D7F81838587898B8D8F91939534
:10224A0097999B9D9FA1A3A5A7A9ABADAFB1B3B524
:10225A00B7B9BBBDBFC1C3C5C7C9CBCDCFD1D3D514
:10226A00D7D9DBDDDFE1E3E5E7E9EBEDEFF1F3F504
:10227A00F7F9FBFDFF00000000000000000000006D
:10228A000000000000000000000000000000000044
:10229A000000000000000000000000000000000034
:1022AA000000000000000000000000000000000024
:1022BA000000000000000000000000000000000014
:1022CA000000000000000000000000000000000004
:1022DA0000000000000000000000000000000000F4
:1022EA0000000000000000000000000000000000E4
:1022FA0000000000000012243A49555E666D7379A9
:10230A007E83878B8E9295989B9DA0A2A5A7A9AB49
:10231A00ADAFB1B3B4B6B8B9BBBCBEBFC1C2C3C41A
:10232A00C6C7C8C9CACBCDCECFD0D1D2D3D4D4D5C3
:0D233A00D6D7D8D9DADBDBDCDDDEDFDFE073
:10234700E1E1E2E3E4E4E5E6E6E7E8E8E9E9EAEB28
:10235700EBECECEDEEEEEFEFF0F0F1F1F2F3F3F47E
:10236700F4F5F5F6F6F7F7F8F8F8F9F9FAFAFBFBEA
:10237700FCFCFCFDFDFEFEFF00000000000000006D
:102387000000000000000000000000000000000046
:102397000000000000000000000000000000000036
:1023A7000000000000000000000000000000000026
:1023B7000000000000000000000000000000000016
:1023C7000000000000000000000000000000000006
:1023D70000000000000000000000000000000000F6
:1023E70000000000000000000000000000000000E6
:1023F70000000000000000000002050D151C232945
:102407002F343A3E43474C5054575B5E6265686BC6
:102417006E717376797B7E80838587898C8E9092A7
:102427009496989A9C9D9FA1A3A5A6A8AAABADAF89
:10243700B0B2B3B5B6B8B9BBBCBDBFC0C1C3C4C5E4
:10244700C7C8C9CBCCCDCECFD1D2D3D4D5D6D8D986
:10245700DADBDCDDDEDFE0E1E2E3E4E5E6E7E8E95D
:10246700EAEBECEDEEEFF0F1F2F3F4F5F6F6F7F850
:10247700F9FAFBFCFCFDFEFF000000000000000075
:102487000000000000000000000000000000000045
:102497000000000000000000000000000000000035
:1024A7000000000000000000000000000000000025
:1024B7000000000000000000000000000000000015
:1024C7000000000000000000000000000000000005
:1024D70000000000000000000000000000000000F5
:1024E70000000000000000000000000000000000E5
:1024F70000000000000000000001010101020303C9
:102507000405060708090A0B0C0D0E0F1012131409
:102517001517181A1B1C1E1F2122242627292A2CAF
:102527002E3031333537383A3C3E40424446484AEC
:102537004C4E50525456585A5C5E60636567696BDF
:102547006E70727577797C7E808385888A8C8F918F
:102557009496999B9EA1A3A6A8ABAEB0B3B5B8BB02
:10256700BEC0C3C6C8CBCED1D4D6D9DCDFE2E5E83E
:10257700EAEDF0F3F6F9FCFF0000000000000000B0
:102587000000000000000000000000000000000044
:102597000000000000000000000000000000000034
:1025A7000000000000000000000000000000000024
:1025B7000000000000000000000000000000000014
:1025C7000000000000000000000000000000000004
:1025D70000000000000000000000000000000000F4
:1025E70000000000000000000000000000000000E4
:1025F7000000000000000000790274B078A8F2E93A
:1026070078A9F2B4020BE3F403547F78AAF2022804
:1026170028B4030BE31403547F78AAF2022828B4E2
:10262700050BE3F403547F78AAF2022828B4080BB9
:10263700E3F403547F78AAF2022828B4090BE314C1
:1026470003547F78AAF2022828B40B0BE3F403544F
:102657007F78AAF2022828B4100AE303547F78AAE5
:10266700F2022828B4110AE303547F78AAF2022859
:1026770028B4200AE303547F78AAF2022828B42159
:102687000AE303547F78AAF2022828B4300AE30346
:10269700547F78AAF2022828B4310AE303547F78DA
:1026A700AAF2022828B4320BE31403547F78AAF263
:0D26B700022828B4330AE303547F78AAF206
:1026C400022828B4340BE31403547F78AAF20228B6
:1026D40028B4350BE31403547F78AAF2022828B4F3
:1026E400360BE31403547F78AAF2022828B4370B7C
:1026F400E31403547F78AAF2022828B4440BE314A9
:1027040003547F78AAF2022828B4450BE314035437
:102714007F78AAF2022828B4460BE31403547F7886
:10272400AAF2022828B4470BE31403547F78AAF2D0
:10273400022828B43D0BE3F403547F78AAF202285C
:1027440028B43E0BE3F403547F78AAF2022828B499
:102754003F0BE3F403547F78AAF2022828B4500A0A
:10276400E303547F78AAF2022828B4510AE30354FD
:102774007F78AAF2022828B4160AE314547F78AAB0
:10278400F2022828B4260AE314547F78AAF2022815
:1027940028B41C02800DB42C028008B40E028003FD
:1027A400B40F2BE3B418047400801EB40C04740139
:1027B4008017B4060474028010B4030474038009FF
:1027C400B4010474048002740078AAF28056B4132D
:1027D40025E3B40D00500D75F005A42440547F7812
:1027E400AAF28040F475F005A4547FF8743B985421
:1027F4007F78AAF2802EB42325E3B40D00500D7522
:10280400F005A42440547F78AAF28018F475F005EA
:10281400A4547FF8743B98547F78AAF28006E3545A
:102824007F78AAF2751F03D246304707758401D218
:1028340099C2472046FD09B9570280030226019038
:1028440000A0795774B078A8F2E978A9F2E0547F2F
:1028540078AAF2751F03D2462046FD09A3B95DE4A8
:1028640074B078A8F2745D78A9F2E57D78AAF2755F
:102874001F03D2462046FD74B078A8F2745E78A98E
:10288400F2785EE278AAF2751F03D2462046FD7400
:10289400B078A8F2745F78A9F2785FE278AAF2754A
:1028A4001F03D2462046FD74F078ACF2747D78ABF9
:1028B400F2740078A8F2794AE3540F78A9F274F715
:1028C40078AAF2751F05D2462046FD74F078ACF262
:1028D400747D78ABF2740178A8F2794AE35430C479
:1028E4000478A9F274F778AAF2751F05D246204637
:1028F400FD74F078ACF2747D78ABF2740478A8F2CD
:10290400794AE35440C4030378A9F274F778AAF22D
:10291400751F05D2462046FD224138F8E51EB40154
:1029240009E8B47DF4751E0241A1B40251E8B40073
:1029340005751E0341A1B40105751E0441A1B4022D
:1029440005751E0541A1B40405751E0641A1B40513
:1029540005751E0741A1B40605751E0841A1B407FB
:1029640005751E0941A1B40805751E0A41A1B409E3
:1029740005751E0B41A1B40AA0751E0C41A1B40338
:102984000C794AE354F028F3751EFF41A1B40433D3
:10299400E8600114C454F0F8B4300B794AE3540FDE
:1029A40004540FF38011794AE354F0B43009794A9E
:1029B400E3540F14540FF3794AE3540F28F3751EAC
:1029C400FF41A1B40511E87007C269751EFF41A15A
:1029D400D269751EFF41A1B4061DE8700DC26D7960
:1029E4004AE3C2E6F3751EFF41A1D26D794AE3D2F0
:1029F400E6F3751EFF41A1B40707D23C751EFF41E3
:102A0400A1B40807D23D751EFF41A1B40908E8F539
:102A14007D751EFF41A1B40A07D23F751EFF807D5C
:102A2400B40B07D26E751EFF8073B40C07D23E75CB
:0D2A34001EFF8069C268751E008062C084AC
:102A4100C0E0C0F0C0D0C082C083C000C0017584A6
:102A510001E59810E10310E05AF598304642E51F70
:102A6100B4050978ACE2F599151F8034B4040978EE
:102A7100ABE2F599151F8028B4030978A8E2F5990E
:102A8100151F801CE51FB4020978A9E2F599151FED
:102A9100800EE51FB4010978AAE2F599151FC24617
:102AA100D001D000D083D082D0D0D0F0D0E0D0847B
:102AB10032211F758401F598E5992068F420E7100B
:102AC100204209104108D241F57B80D46150615206
:102AD100B4F000501AF57AC24154F0B4C006D242A3
:102AE100D24080BCB4D00280F5C242D24080B1C293
:102AF10040B4F007D268751E0180A5B4F707C2681B
:102B0100751E00809BB4F838B24A305A0BD50908BB
:102B1100790EE3F509750800305B0BD50F08790FC5
:102B2100E3F50F750E00304D0AD56707791CE3F503
:102B310067D24B304E0AD56807792CE3F568D24C41
:102B4100B4FA0241A1B4FB0241A1B4FC0041A1F5D8
:102B51007BF57CE57A540FF5F0794AE3540F65F083
:102B6100600241A1E57A54F0B480028008B4904536
:102B7100E57CB400427503017974E7B57B2CE5214E
:102B81004503F521E5244503F524E503F45522F534
:102B910022E503F45525F525E503F45523F523E551
:102BA10003F45526F526C29641A1E50323F5030951
:102BB100B978C741A181C1794AE354F0700330B7B4
:102BC100F2B420077440B57B0050E8D2967906E351
:102BD1006003750800790CE36003750E007502004F
:102BE1007503FE7974E7B57B3EE5235503F523E5CF
:102BF100265503F526E5215503F521E5245503F571
:102C010024E503F44522F522E503F44525F525E500
:102C1100205503F520E5022470F97400F7E502243C
:102C210010F97400F7800BE50323F503050209B9D8
:102C310078B3750200750301E520B40F24794AE3E6
:102C410054F0700241A1B24F304F0CC219C209D2E7
:102C510011C201E520800AC21AC20AD212C202E5DB
:102C610020F8E813F85009E50323F503050280F283
:102C7100E5022470F97400F7E5022410F97400F7F5
:102C8100E5224503F522E5254503F525E520450324
:102C9100F520E5022474F9E57BF7E50224ACC0E0F8
:102CA1009021FF794EE32583F583D0E0F9E57C930C
:102CB100305303F341A174FFF341A10234A7A1787A
:102CC100B4B0F8E57BB401F6791AE3B4000241A18E
:102CD100B401097932E57C2304F341A1B4020879F6
:102CE10033E57C23F341A1B4030B7910E57C23F395
:102CF1007920F341A1B4040B7911E57C23F3792107
:102D0100F341A1B40507E57C7996F341A1B4060727
:102D1100E57C7997F341A1B4070AE57C7996F379CB
:102D210097F341A1B40807E57C7915F341A1B409F2
:102D310007E57C7925F341A1B40A0AE57C7915F30D
:102D41007925F341A1B40B09793DE57C23F4F341E5
:102D5100A1B40C09793EE57C23F4F341A1B40D093A
:102D6100793FE57C23F4F341A1B40E0241A1B40FF4
:102D71000241A141A141A13069FBE57B10E608C3F5
:102D810033C333902D9073C333C333902E907302AA
:102D91002F9000022F9200022F9400022F9D00021B
:102DA1002FA600022FAD00022FB600022FBD000298
:0D2DB1002FC800022FD100022FDA00022FE0
:102DBE00E100022FEA00022FF100022FFC00023088
:102DCE00340002306C000230750002307E0002309A
:102DDE009E000230AA000230BA000230CD0002304E
:102DEE00D6000230E2000230EA000230F200023079
:102DFE00FA000231060002313E0002314A00023171
:102E0E005600023159000231620002316B0002316C
:102E1E008B00023197000231A7000231B800023157
:102E2E00C1000231CA000231D2000231DE0002318D
:102E3E00E6000231F20002322A0002323B00023278
:102E4E004C0002325D000232660002326F00023226
:102E5E0079000232820002328C0002329600023277
:102E6E00A0000232AA000232B6000232C2000232C2
:102E7E00CC000232D6000232D9000232DC0002321D
:102E8E00DF000232E2000232F300023304000233AA
:102E9E000E00023318000233220002332C000233DC
:102EAE0036000233400002334A000233540002332C
:102EBE005700023368000233790002338100023377
:102ECE00890002338C000233950002339E000233D8
:102EDE00A8000233B2000233C3000233D40002331F
:102EEE00E5000233E8000233EB000233EE0002335A
:102EFE00F1000233F4000233F7000233FA00023419
:102F0E00020002340A0002340D00023410000234B2
:102F1E001300023416000234190002341C0002346D
:102F2E001F0002342200023425000234280002342D
:102F3E002B0002342E0002343100023434000234ED
:102F4E00370002343A0002343D00023440000234AD
:102F5E004300023446000234490002344C0002346D
:102F6E004F00023452000234550002347500023410
:102F7E008C0002349B0002349E000234A100023405
:102F8E00A40041A141A17902E57C23F4F341A1798A
:102F9E0003E57C2304F341A17904E57CF341A17997
:102FAE0005E57C23F4F341A17906E57CF341A17993
:102FBE0007E57CF3A2E0925A41A17908E57C23F45F
:102FCE00F341A17909E57C2304F341A1790AE57C5B
:102FDE00F341A1790BE57C23F4F341A1790CE57C57
:102FEE00F341A1790DE57CF3A2E0925B41A1790E4C
:102FFE00E57CB400087418F3F509022AA1B401089F
:10300E00740CF3F509022AA1B402087406F3F5094B
:10301E00022AA1B403087403F3F509022AA174016C
:10302E00F3F509022AA1790FE57CB400087418F3B0
:10303E00F50F022AA1B40108740CF3F50F022AA1B0
:10304E00B402087406F3F50F022AA1B40308740340
:10305E00F3F50F022AA17401F3F50F022AA17910DC
:10306E00E57C23F3022AA17911E57C23F3022AA140
:10307E007912E57CF3B40007C238C23A022AA1B431
:10308E000107D238C23A022AA1C238D23A022AA184
:10309E00E57C9016FF937913F3022AA17996E57CCD
:1030AE00303A02C2E6F37914F3022AA17915E57CCF
:1030BE00F3F569B400067914E37996F3022AA1793F
:1030CE0016E57C04F3022AA17917E57CF3A2E092BF
:1030DE004D022AA17918E57CF3022AA17919E57C23
:1030EE00F3022AA1791AE57CF3022AA1791BE57C69
:1030FE00F3A2E09256022AA1791CE57CB400087472
:10310E0018F3F567022AA1B40108740CF3F56702EF
:10311E002AA1B402087406F3F567022AA1B40308C3
:0D312E007403F3F567022AA17401F3F5673D
:10313B00022AA1791DE57CF3A2E0925C022AA17917
:10314B001EE57CF3A2E0925D022AA1022AA179205E
:10315B00E57C23F3022AA17921E57C23F3022AA142
:10316B007922E57CF3B40007C239C23B022AA1B431
:10317B000107D239C23B022AA1C239D23B022AA192
:10318B00E57C9016FF937923F3022AA17997E57CCE
:10319B00303B02C2E6F37924F3022AA17925E57CC0
:1031AB00F3B400067924E37997F3022AA17926E593
:1031BB007C04F3022AA17927E57C23F3022AA17967
:1031CB0028E57CF3022AA17929E57CF3A2E0924E53
:1031DB00022AA1792AE57CF3022AA1792BE57CF35B
:1031EB00A2E09257022AA1792CE57CB4000874184E
:1031FB00F3F568022AA1B40108740CF3F568022AEE
:10320B00A1B402087406F3F568022AA1B40308748A
:10321B0003F3F568022AA17401F3F568022AA17978
:10322B002DE57CF37005C258022AA1D258022AA1BF
:10323B00792EE57CF37005C259022AA1D259022AD4
:10324B00A1792FE57CF37005C255022AA1D2550254
:10325B002AA17930E57C23F3022AA17931E57C237D
:10326B00F3022AA17932E57C2304F3022AA17933F4
:10327B00E57C23F3022AA17934E57C2304F3022AAB
:10328B00A17935E57C2304F3022AA17936E57C2369
:10329B0004F3022AA17937E57C2304F3022AA179EE
:1032AB0038E57CF3A2E0925E022AA17939E57CF342
:1032BB00A2E0925F022AA1793AE57CF3D264022A5A
:1032CB00A1793BE57CF3D265022AA1022AA1022A4D
:1032DB00A1022AA1022AA17940E57CF36005D266FE
:1032EB00022AA1C266022AA17941E57CF36005D2CC
:1032FB0067022AA1C267022AA17942E57CF3D26355
:10330B00022AA17943E57CF3D261022AA17944E533
:10331B007C2304F3022AA17945E57C2304F3022ADA
:10332B00A17946E57C2304F3022AA17947E57C23A6
:10333B0004F3022AA17948E57CF3D262022AA1792F
:10334B0049E57CF3D260022AA1022AA1794BE57CE4
:10335B00F36005D254022AA1C254022AA1794CE58A
:10336B007CF36005D253022AA1C253022AA1794DE4
:10337B00E57CF3022AA1794EE57CF3022AA1022A0D
:10338B00A17950E57C23F3022AA17951E57C23F343
:10339B00022AA17952E57C5403F3022AA17953E561
:1033AB007C5403F3022AA17954E57CF37005C26ABD
:1033BB00022AA1D26A022AA17955E57CF37005C2D3
:1033CB006B022AA1D26B022AA17956E57CF3700518
:1033DB00C26C022AA1D26C022AA1022AA1022AA142
:1033EB00022AA1022AA1022AA1022AA1022AA17958
:1033FB005EE57CF3022AA1795FE57CF3022AA10248
:10340B002AA1022AA1022AA1022AA1022AA1022A86
:10341B00A1022AA1022AA1022AA1022AA1022AA1FF
:10342B00022AA1022AA1022AA1022AA1022AA1028E
:10343B002AA1022AA1022AA1022AA1022AA1022A56
:10344B00A1022AA1022AA1022AA1E57CB401005003
:10345B0005F51C022AA1B402005005F51C022AA195
:10346B00B403005002F51C022AA1E51CB402004073
:10347B0009E57C541FF51B022AA1E57CF51B022AEA
:10348B00A1E57CB403004003022AA1F51D022AA189
:10349B00022AA1022AA1022AA1022AA1B4E011E563
:0D34AB007C2054059018FF800390197F933A
:1034B800794FF3B4C007E57CB40A005000022AA192
:1034C80020222426282A2C2E30323436383A3C3E04
:1034D80040424446484A4C4E50525456585A5C5EF4
:1034E80060626466686A6C6E70727476787A7C7EE4
:1034F80080828486888A8C8E90929496989A9C9ED4
:103508009E9EA0A2A4A6A8AAACAEB0B2B4B6B8BA01
:10351800BCBEC0C2C4C6C8CACCCED0D2D4D6D8DAF3
:10352800DCDEE0E2E4E6E8EAECEEF0F2F4F6F8FAE3
:10353800FCFEFFFFFFFFFFFFFFFFFFFFFFFFFFFF97
:1035480000102033404A525A60656A6E7276797D5F
:10355800808285878A8C8E9092949698999B9D9E5E
:103568009FA1A2A4A5A6A7A9AAABACADAEAFB0B1C6
:10357800B2B3B4B5B6B7B8B8B9BABBBCBCBDBEBFB8
:10358800BFC0C1C1C2C3C4C4C5C5C6C7C7C8C8C9EE
:10359800CACACBCBCCCCCDCECECFCFD0D0D1D1D246
:1035A800D2D3D3D3D4D4D5D5D6D6D7D7D7D8D8D9BC
:1035B800D9DADADADBDBDCDCDCDDDDDDDEDEDFDF41
:1035C800DFE0E0E0E1E1E1E2E2E2E3E3E3E4E4E4D6
:1035D800E5E5E5E6E6E6E7E7E7E7E8E8E8E9E9E973
:1035E800EAEAEAEAEBEBEBECECECECEDEDEDEDEE18
:1035F800EEEEEEEFEFEFEFF0F0F0F0F1F1F1F1F2C7
:10360800F2F2F2F3F3F3F3F4F4F4F4F5F5F5F5F577
:10361800F6F6F6F6F7F7F7F7F7F8F8F8F8F8F9F92D
:10362800F9F9F9FAFAFAFAFAFBFBFBFBFBFCFCFCEA
:10363800FCFCFDFDFDFDFDFEFEFEFEFEFEFFFFFFA8
:10364800F59B30FFFDC2FF22758400759A4375848F
:103658000FC2A2C2A1758400740612364875840F81
:10366800D2A1D2A222758400759A4375840FC2A292
:10367800C2A1758400740412364875840FD2A2D290
:10368800A122758400759A4375840FC2A2C2A175E0
:103698008400745012364875840FD2A2D2A122C079
:1036A800E012368A75840FC2A2C2A1758400740123
:1036B800123648D0E012364875840FD2A2D2A12221
:1036C800758400759A4375840FC2A27584007405C9
:1036D8001236487400123648E59B75840FD2A2D280
:1036E800A122758400759A4375840FC2A27584005F
:1036F80074351236487400123648E59B75840FD22B
:10370800A2D2A12212365075840FC2A2C2A175841A
:1037180000746012364875840FD2A1D2A2D1C82095
:10372800E0FB2212365075840FC2A2C2A175840034
:1037380074D8123648E519123648E583123648E53A
:103748008212364875840FD2A1D2A2D1C820E0FBDC
:103758002212365075840FC2A2C2A1758400745219
:10376800123648E519123648E583123648E58212C2
:10377800364875840FD2A1D2A2D1C820E0FB2275A9
:103788008400759A4375840FC2A27584007403126D
:103798003648E519123648E583123648E58212366E
:1037A800487400123648E59B75840FD2A222C0E007
:1037B80012365075840FC2A2C2A175840074021219
:1037C8003648E519123648E583123648E58212363E
:1037D80048D0E012364875840FD2A2D2A11236C85A
:1037E80020E0FA2275840FC2A27584007490123604
:1037F80048740012364812364804123648141236F5
:1038080048E59B75840FD2A22274000236A77584FE
:1038180000759A4375840FC2A3C2A175840074060B
:0D38280012364875840FD2A1D2A3227584F8
:1038350000759A4375840FC2A3C2A17584007404F0
:1038450012364875840FD2A3D2A122758400759AC9
:103855004375840FC2A3C2A1758400745012364803
:1038650075840FD2A3D2A122C0E012385075840FFF
:10387500C2A3C2A17584007401123648D0E0123685
:103885004875840FD2A3D2A122758400759A437519
:10389500840FC2A37584007405123648740012366D
:1038A50048E59B75840FD2A3D2A122758400759A31
:1038B5004375840FC2A375840074351236487400AD
:1038C500123648E59B75840FD2A3D2A12212381671
:1038D50075840FC2A3C2A175840074601236487541
:1038E500840FD2A1D2A3118E20E0FB2212381675C7
:1038F500840FC2A3C2A175840074D8123648E51995
:10390500123648E583123648E58212364875840F2B
:10391500D2A1D2A3118E20E0FB2212381675840F96
:10392500C2A3C2A17584007452123648E519123635
:1039350048E583123648E58212364875840FD2A1D0
:10394500D2A3118E20E0FB22758400759A437584FD
:103955000FC2A37584007403123648E51912364860
:10396500E583123648E5821236487400123648E57A
:103975009B75840FD2A322C0E012381675840FC23E
:10398500A3C2A17584007402123648E5191236489F
:10399500E583123648E582123648D0E0123648757E
:1039A500840FD2A3D2A112388E20E0FA2275840F9B
:1039B500C2A37584007490123648740012364812FA
:1039C50036480412364814123648E59B75840FD2E2
:1039D500A322740002386DC084C0E0C0F0C0D0C01E
:1039E50082C083C000C001758400E59810E1031012
:1039F500E043758400F59830462AE51FB40309783D
:103A0500A8E2F599151F801CE51FB4020978A9E203
:103A1500F599151F800EE51FB4010978AAE2F599FD
:103A2500151FC246D001D000D083D082D0D0D0F0AF
:103A3500D0E0D08432758400F598E599F8852E821A
:103A4500852F83E51DB40008D297E81242FB801C40
:103A5500B40108D296E812432D8011B402C6D2955E
:103A6500E812435FE583B4C003907FFFA385822EF0
:103A750085832FC297C296C29580A9740212115DE3
:103A8500740051B2740112115D740051B2740412C4
:103A9500115D740051B2740812115D740051B222A7
:103AA500D260D261D262D263D264D26522F8903CF0
:103AB500A893758400002045FD00D2450075C044DB
:103AC500756F00756B882430F56CC2C4D2C5E8905B
:103AD5003C2893758400002045FD00D2450075C043
:103AE50044756F00756B882430F56CC2C4D2C5224D
:103AF500F8903DA893758400002045FD00D245004F
:103B050075C044756F00756B88F56CC2C4D2C5E885
:103B1500903D2893758400002045FD00D245007531
:103B2500C044756F00756B88F56CC2C4D2C522F8A8
:103B3500903CA893758400002045FD00D245007592
:103B4500C044756F00756B88F56CC2C4D2C5E8902A
:103B55003C2893758400002045FD00D2450075C0C2
:103B650044756F00756B88F56CC2C4D2C522F89098
:103B75003E2893758400002045FD00D2450075C0A0
:103B850044756F00756B88F56CC2C4D2C5E8903E6C
:103B9500A893758400002045FD00D2450075C044FA
:0D3BA500756F00756B88F56CC2C4D2C5E861
:103BB200903F2893758400002045FD00D245007592
:103BC200C044756F00756B88F56CC2C4D2C5E890AD
:103BD2003FA893758400002045FD00D2450075C0C2
:103BE20044756F00756B88F56CC2C4D2C5227584AA
:103BF20000002045FD00D2450075C044756F007578
:103C02006B88756C78C2C4D2C522758400002045C9
:103C1200FD00D2450075C044756F00756B88756CE8
:103C2200FFC2C4D2C522A9A9A8A7A6A6A5A4A4A3D7
:103C3200A2A2A1A1A0A0A9A9A8A7A6A6A5A4A4A33F
:103C4200A2A2A1A1A0A0A9A9A8A7A6A6A5A4A4A32F
:103C5200A2A2A1A1A0A0A9A9A8A7A6A6A5A4A4A31F
:103C6200A2A2A1A1A0A0A9A9A8A7A6A6A5A4A4A30F
:103C7200A2A2A1A1A0A0A9A9A8A7A6A6A5A4A4A3FF
:103C8200A2A2A1A1A0A0A9A9A8A7A6A6A5A4A4A3EF
:103C9200A2A2A1A1A0A0A9A9A8A7A6A6A5A4A4A3DF
:103CA200A2A2A1A1A0A0B7B7B7B7B7B7B7B7B7B726
:103CB200B7B7B7B7B7B7B6B6B6B6B6B6B6B6B6B69C
:103CC200B6B6B6B6B6B6B5B5B5B5B5B5B5B5B5B59C
:103CD200B5B5B5B5B5B5B4B4B4B4B4B4B4B4B4B49C
:103CE200B4B4B4B4B4B4B3B3B3B3B3B3B3B3B3B39C
:103CF200B3B3B3B3B3B3B2B2B2B2B2B2B2B2B2B29C
:103D0200B2B2B2B2B2B2B1B1B1B1B1B1B1B1B1B19B
:103D1200B1B1B1B1B1B1B0B0B0B0B0B0B0B0B0B09B
:103D2200B0B0B0B0B0B029292827262625242423F4
:103D3200222221212020292928272626252424233E
:103D4200222221212020292928272626252424232E
:103D5200222221212020292928272626252424231E
:103D6200222221212020292928272626252424230E
:103D720022222121202029292827262625242423FE
:103D820022222121202029292827262625242423EE
:103D920022222121202029292827262625242423DE
:103DA2002222212120203737373737373737373725
:103DB200373737373737363636363636363636369B
:103DC200363636363636353535353535353535359B
:103DD200353535353535343434343434343434349B
:103DE200343434343434333333333333333333339B
:103DF200333333333333323232323232323232329B
:103E0200323232323232313131313131313131319A
:103E1200313131313131303030303030303030309A
:103E2200303030303030B7B7B7B7B7B7B6B6B6B64E
:103E3200B6B6B5B5B5B5B5B5B4B4B4B4B4B4B3B338
:103E4200B3B3B3B3B2B2B2B2B2B2B1B1B1B1B1B152
:103E5200B0B0B0B0B0B0B0B0B0B0B0B0B0B0B0B060
:103E6200B0B0B0B0B0B0B0B0B0B0B0B0B0B0B0B050
:103E7200B0B0B0B0B0B0B0B0B0B0B0B0B0B0B0B040
:103E8200B0B0B0B1B1B1B1B1B2B2B2B2B2B3B3B318
:103E9200B3B3B4B4B4B4B4B5B5B5B5B5B6B6B6B6D5
:103EA200B6B7B7B7B7B7A9A7A5A3A1A0A9A7A5A356
:103EB200A1A0A9A7A5A3A1A0A9A7A5A3A1A0A9A7BD
:103EC200A5A3A1A0A9A7A5A3A1A0A9A7A5A3A1A0B5
:103ED200A9A7A5A3A1A0A0A0A0A0A0A0A0A0A0A0C7
:103EE200A0A0A0A0A0A0A0A0A0A0A0A0A0A0A0A0D0
:103EF200A0A0A0A0A0A0A0A0A0A0A0A0A0A0A0A2BE
:103F0200A4A6A9A0A2A4A6A9A0A2A4A6A9A0A2A46C
:103F1200A6A9A0A2A4A6A9A0A2A4A6A9A0A2A4A65A
:0D3F2200A9A0A2A4A6A93737373737373634
:103F2F003636363636353535353535343434343432
:103F3F00343333333333333232323232323131314D
:103F4F003131313030303030303131313131313257
:103F5F003232323232333333333333343434343422
:103F6F0034353535353535363636363637373737E6
:103F7F00373030303030303030303030303030302B
:103F8F003030303030303030303030303030303022
:103F9F003030303030303030302927252321202960
:103FAF0027252321202927252321202927252321C0
:103FBF0020292725232120292725232120292725AB
:103FCF0023212029272523212020212325272920AC
:103FDF002123252729202123252729202123252790
:103FEF002920212325272920232527292023252779
:103FFF0029202020202020202020202020202020A9
:10400F0020202020202020202020202020202020A1
:10401F00202020202020202020C2AFD297E51B5443
:10402F001FC313F519E492E7F58375820012391F48
:10403F00E5B1540FF5B1E5B14410F5B1908000E44E
:10404F0093F8C083E51B20E006E583547FF583E8F2
:10405F0012397CD083A3E583458270E3C297D2AF38
:10406F0022E51DB400045150800CB4010451898025
:10407F0005B4023B51C2752E00752F8074B078A81D
:10408F00F2747878A9F2740178AAF2751F03D246F8
:10409F00758401D2992046FD758400D29CD2AC75EF
:1040AF00840F30A6FD20A6FD758400C29CC2AC22F1
:1040BF00024142E51DB400F8D2975150E51C20E1B2
:1040CF003C908000C083E51BC313F5194006E583C0
:1040DF00547FF583E51C30E006E5194440F519C21D
:1040EF00AF5139D2AF51FBD083A3E583458270D452
:1040FF0078A0E51BF278A3E51CF2C297229080000E
:10410F00C083E51B541FC313F5194006E583547F85
:10411F00F583C2AF5141D2AF51FBD083A3E58345A5
:10412F008270DD78A0E51BF278A3E51CF2C297221E
:10413F000241C0B401FAD2965189E51C20E13C90AE
:10414F008000C083E51BC313F5194006E583547F38
:10415F00F583E51C30E006E5194440F519C2AF516F
:10416F0039D2AF712DD083A3E583458270D478A166
:10417F00E51BF278A4E51CF2C29622908000C08362
:10418F00E51B541FC313F5194006E583547FF583D0
:10419F00C2AF5141D2AF712DD083A3E58345827059
:1041AF00DD78A1E51BF278A4E51CF2C2962202424B
:1041BF0036B402FAD29551C2E51C20E13B90800043
:1041CF00C083E51BC313F5194006E583547FF583C0
:1041DF00E51C30E006E5194440F519C2AF5139D25C
:1041EF00AF715FD083A3E583B4C0D578A2E51BF28E
:1041FF0078A5E51CF2C29522908000C083E51B5480
:10420F001FC313F5194006E583547FF583C2AF51E1
:10421F0041D2AF715FD083A3E583B4C0DE78A2E54E
:10422F001BF278A5E51CF2C29522123787221237AE
:10423F00B62212394D2212397C2275840F75A101D5
:10424F0022758400C2AF758F0375B73175EF02E524
:10425F00B1540FF5B1E5B14410F5B190800074FF82
:10426F00F00583058305830583E583B400F075842A
:10427F000075B730758F00D2AF22758400C2AF754D
:10428F008F0375B73175EF02E5B1540FF5B1E5B195
:0D429F004420F5B190800074FFF005830508
:1042AC008305830583E583B400F075840075B7300E
:1042BC00758F00D2AF22758400C2AF758F0375B7AE
:1042CC003175EF02E5B1540FF5B1E5B14430F5B1FC
:1042DC0090800074FFF00583058305830583E583D7
:1042EC00B4C0F075840075B730758F00D2AF2275ED
:1042FC008400C2AFC083C0E0758F0175B731E5B1E2
:10430C00540FF5B1E5B14410F5B1E5834480F58364
:10431C00D0E0F075840075B730758F00D083D2AFC4
:10432C0022758400C2AFC083C0E0758F0175B731B0
:10433C00E5B1540FF5B1E5B14420F5B1E583448006
:10434C00F583D0E0F075840075B730758F00D0839D
:10435C00D2AF22758400C2AFC083C0E0758F0175E7
:10436C00B731E5B1540FF5B1E5B14430F5B1E583A2
:10437C004480F583D0E0F075840075B730758F00FC
:05438C00D083D2AF2236
:00000001FF
